S019000053414D4537302D4F4C4544312D455854312E73726563AD
S214400000702D402019124000151240001512400075
S2144000101512400015124000151240000000000066
S2144000200000000000000000000000001512400024
S2144000301512400000000000151240001512400046
S21440004015124000151240000917400015124000D6
S21440005015124000151240001512400015124000BF
S2144000601512400000000000E90F4000FD0F400060
S21440007011104000151240001512400015124000A5
S214400080251040003910400015124000151240005F
S214400090151240001512400015124000151240007F
S2144000A0E915400015124000151240001512400098
S2144000B0151240001512400015124000151240005F
S2144000C0151240001512400015124000151240004F
S2144000D0000000001512400000000000151240000D
S2144000E0151240001512400015124000151240002F
S2144000F0151240001512400015124000151240001F
S214400100151240001512400015124000151240000E
S2144001101512400000000000000000000000000033
S21440012015124000151240001512400015124000EE
S2144001301512400000000000151240001512400045
S21440014010B5054C237833B9044B13B10448AFF3CC
S21440015000800123237010BDD0094020000000001D
S214400160DC7540000C4B43B10C480D4910B5AFF35D
S21440017000800C48036823B910BD0A48036833B9A9
S2144001807047094B002BF7D0BDE810401847064B88
S214400190002BF5D0184700BF00000000DC7540007B
S2144001A0D4094020DC7540000000000021B94368B7
S2144001B023F0010343607047436843F00103436004
S2144001C070470162704730B485688468A54203D0A2
S2144001D085688468AC42FBD161B1C4F3015000EB42
S2144001E08005C4F3034000EB450014F4800F18BFAD
S2144001F00C30086042B1C4F3023101EB8101C4F314
S214400200032000EB4101116043B1C4F3021202EB3C
S214400210820204F00F0404EB42041C6030BC7047BA
S214400220F0B4446814F0010F05D00C2903D90C39FA
S2144002304FF4800700E000271C4CA4FB0356F6084A
S21440024006EB8605A3EB450343EA0613A4FB0265CB
S214400250ED0843EA053305EB8505A2EB450543EA81
S21440026005233B43A4FB0142D20843EA025302EB78
S2144002708202A1EB420143EA0141836913F0040F75
S214400280FBD0036843F001030360836913F0010F5A
S214400290FBD00123C3618160036823F00103036040
S2144002A0C06A00F00100F0BC704700BFCDCCCCCC9B
S2144002B0F0B5059C069D079F0E46B1B1416811F00A
S2144002C0010F05D00C2A03D90C3A4FF4800600E003
S2144002D000261949A1FB02E1C90801EB810EA2EBF9
S2144002E04E02120442EA015216435BB1124BA3FB84
S2144002F00423DB0803EB8302A4EB4204240244EA13
S2144003000334264355B10C4BA3FB0723DB0803EB12
S2144003108302A7EB420747EA03131E430269074BD3
S2144003201340036106610269054B13430361C06ACB
S21440033000F00400F0BD00BFCDCCCCCC7F7F7FFF6B
S2144003408080800070B42A4DA5FB0346F608039CC7
S214400350640544EA067406EB8606A3EB460344EAC5
S2144003600363A5FB0264E40843EA045304EB8404F5
S214400370A2EB440243EA02421E4BA3FB01439B0905
S21440038042EA03121C4BA3FB01435B09A5FB036433
S214400390E40804EB8404A3EB44031A43A5FB01439F
S2144003A0DB0803EB8304A1EB440142EA0122A5FBF0
S2144003B00315ED0805EB8505A3EB450542EA053236
S2144003C0836913F0040FFBD0036843F00203036015
S2144003D0836913F0010FFBD00123C361C260036839
S2144003E023F002030360C06A00F0020070BC70474E
S2144003F0CDCCCCCCD34D62101F85EB518069704775
S214400400C161704708B5074B984203D0064B9842E7
S21440041004D008BD1520054B984708BD2A20034B3D
S2144004209847F6E700800040008005406D11400088
S214400430436823F4702343604368090401F4702141
S21440044019434160704730B443F69924056915F066
S214400450020F03D1013CF9D101200CE0446814F0AE
S214400460020F06D0120402F4702211430BB141F081
S2144004708071C160002030BC704732B900EB81000B
S214400480036B23F001030363704700EB8100036BAB
S21440049043F001030363704732B900EB8100036BFE
S2144004A023F002030363704700EB8100036B43F0C5
S2144004B0020303637047042A03D06AB1082A16D0A1
S2144004C0704700EB8100036B23F008030363036B64
S2144004D043F004030363704700EB8100036B23F093
S2144004E008030363036B23F004030363704700EBC6
S2144004F08100036B43F008030363E1E700EB8101EF
S2144005000B6B23F0F0030B630B6B1A430A637047C5
S214400510431E1944B1FBF0F0431EFE2B94BF00B2BD
S2144005204FF0FF3070477AB110B4144600EB8101AB
S2144005300B6B23F47F430B630A6B42EA04220A6385
S21440054000205DF8044B70474FF0FF30704710B402
S21440055089014318022444504FF0FF319962196ACA
S2144005605A605DF8044B7047890105234350704735
S21440057000EB8111CA61704700EB81114A627047F7
S21440058000EB8111086A7047F0B486B002240194EB
S2144005900824029420240394802404940A9CE40BA8
S2144005A00594B0EB510F14D84C0CA04217D201253D
S2144005B001AF57F82540B1FBF4F4260C84420AD329
S2144005C086420DD90135052DF3D1002006B0F0BC8A
S2144005D070470020FAE70020F8E70120F6E70025FC
S2144005E02AB106A901EB850151F8141C1160002BB5
S2144005F0F3D01D600120E9E7014B1860704700BF4B
S214400600EC094020024B1B6803EBC0104254704775
S214400610EC094020024B1B6803EBC010405C70475F
S214400620EC0940202DE9F0478418802C02DDC0F10B
S2144006308004E2B222B3CD08A1EBC501012606FA3A
S21440064001F1CEB2012B1DD0002B35D0022B17D195
S2144006500138C7B2D419E4B2DFF890A04FF00009D1
S214400660DFF88C8021462846D04786EA00024B4673
S214400670D2B221462846C047013CE4B2BC42F1D142
S214400680BDE8F0870138C7B2D419E4B2DFF85CA001
S2144006904FF00009DFF8588021462846D04746EA02
S2144006A000024B46D2B221462846C047013CE4B23F
S2144006B0BC42F1D1BDE8F0870138C7B2D419E4B2E4
S2144006C0DFF82880CE43DFF8289021462846C047EA
S2144006D006EA00020023D2B221462846C847013C1B
S2144006E0E4B2BC42F1D1BDE8F08700BF3909400012
S2144006F0210840002DE9F8439DF820708BB11C4638
S214400700904606464D1EEDB22C44E4B2DFF81890F3
S2144007103B46424621463046C847013CE4B2AC42DE
S214400720F6D1BDE8F88300BF250640002DE9F04F1E
S21440073083B00446884691469B465B7A9BF80820E1
S2144007400021009149464046214DA8479BF800307D
S21440075013B103B0BDE8F08F9BF80820D30812F021
S214400760070F18BF01339BF809A09BF80A70E71BD8
S21440077017FB0AF717FB03F7DBF8043013FA87F783
S2144007801FE06400E4B20135EBB29E4210D9EBB2F2
S21440079008EB0300C0B213F0070F08BF17F8014B71
S2144007A014F0800FEDD0012249460A4B9847E8E7FF
S2144007B009F101095FFA89F90AF1FF3A1AF0FF0ACE
S2144007C0C7D09BF80860002EF2D000252C46DEE706
S2144007D0F5064000C10840002DE9F843044690461F
S2144007E01D4689460D4F0E4608E06A7A013242445D
S2144007F05FFA82F8B14614F8013F6BB120780A28B8
S214400800F3D00D28F7D02B4642464946B8472B7AB8
S21440081099445FFA89F9EEE7BDE8F8832D07400072
S21440082070B504460D4616461BB90D4B9847B04268
S21440083015D03246294620460A4B984704F00F000A
S21440084040F0B000084CA047C5F3021040F010003E
S214400850A04705F00F00A0473046044B984770BDB0
S214400860150640000506400045094000650B40005F
S2144008702DE9F0410D480E4B98470E4B98474020C7
S2144008800D4B984700254FF001082F460B4E00248D
S21440089043463A46E1B22846B0470134802CF7D169
S2144008A00135EDB2042DF2D1BDE8F081F0094020CB
S2144008B0F9054000850940004509400021084000F0
S2144008C02DE9F843C30923D11F2921D814460546EC
S2144008D0CF08A1EBC701012606FA01F85FFA88F9AE
S2144008E001463846114B9847064646F2C720104BFD
S2144008F09847012C0ED08CB1022C13D000233246E0
S214400900294638460B4CA04746F2C720084B984726
S214400910BDE8F88349EA0606F6B2EFE726EA080697
S214400920F6B2EBE789EA0606F6B2E7E715064000B8
S214400930010040202108400008B5014B984708BDFB
S2144009401506400038B505460822094B5A63094C3F
S21440095001212046084B984701231A46294620463F
S214400960064CA0474FF4FD70054B984738BD00BF76
S21440097000100E4000800040310440004704400014
S214400980010040202DE9F843664D4FF400362E61B5
S214400990C5F8A060644B08271F61C3F8A0706E6658
S2144009A0C5F890606E656E62C5F880602A6F22F466
S2144009B000322A676A6F22F400326A675F66C3F8BD
S2144009C090705F655F62C3F880701A6F22F008020D
S2144009D01A675A6F22F008025A671F602E601F631C
S2144009E02E63DFF87C8100234FF480024FF0805165
S2144009F040464E4CA04700234FF400124FF0805123
S214400A004046A04700234FF000724FF080514046CA
S214400A10A04700234FF480024FF080514046A04745
S214400A2000234FF400124FF080514046A047002369
S214400A304FF000724FF080514046A0473C4C4FF07C
S214400A400209C4F800904FF08008C4F8008063683C
S214400A5043F0010363603A4601212046354B9847F0
S214400A60002201212046344B98470022012120468F
S214400A70324B9847636823F00203636000220121EB
S214400A8020462F4B9847636823F080036360636873
S214400A9043F0100363602B492B482C4B9847C2B257
S214400AA0012120462A4B984720462A4B9847012347
S214400AB023606E6340F6B830274CA0472E6340F65E
S214400AC0B830A0472E63A820244CA0471F20A0473C
S214400AD0D320A0470020A0474020A047A120A04701
S214400AE0C820A047DA20A0474846A0478120A04714
S214400AF08F20A047A420A047A620A047D520A047E7
S214400B004046A0478D20A0471420A047DB20A047A2
S214400B104020A047D920A047F120A047AF20A047BB
S214400B20BDE8F88300120E4000100E404D0E400007
S214400B3000800040B70440007B0440009904400019
S214400B40FD04400080D1F00840420F0011054000EF
S214400B5027054000050440000100402045094000AC
S214400B6000140E4038B505460822094B1A63094C56
S214400B7001212046084B984701231A46294620461D
S214400B80064CA0474FF4FD70054B984738BD00BF54
S214400B9000100E40008000403104400047044000F2
S214400BA00100402010B51048104B98473E210020C9
S214400BB00F4B98470F4CA0470028FCD00E4B984749
S214400BC00E4A0F4B9A620F4CA0470028FCD00220DA
S214400BD00D4B984700200D4B98470D4B98470248C1
S214400BE0024B984710BD00BF00A3E111ED13400033
S214400BF0E91040003D1140004D114000013F1820D3
S214400C0000060E405D1140004D104000851040002B
S214400C10E1124000F8B54FF40042484B5A60BFF32B
S214400C204F8FBFF36F8F464B0022C3F850225A694E
S214400C3042F400325A61BFF34F8FBFF36F8FD3F841
S214400C408070C7F34E3607F007000430C7F3C90775
S214400C50B7FA87FE0EF01F0EBFF34F8F4FF0FF34EC
S214400C6004FA00FC06FA00F004FA0EF407FA0EFE48
S214400C701D463A46734640EA0301C5F86012013AFB
S214400C802344B2F1FF3FF6D1013E6044B6F1FF3F48
S214400C90EFD1BFF34F8F2A4B5A6942F480325A61E4
S214400CA0BFF34F8FBFF36F8F264A27495160A1F598
S214400CB080715160BFF34F8FBFF36F8FD3F8902290
S214400CC022F00102C3F89022D3F8942222F00102C7
S214400CD0C3F89422BFF34F8FBFF36F8F0A201B4C8D
S214400CE0A0470B20A0470C20A0471020A04711206B
S214400CF0A047174B4FF480721A61C3F8A0201A63BE
S214400D00A3F580634FF400625A61C3F8A0205A6688
S214400D10C3F890205A651A62C3F88420196F21F4EC
S214400D2000611967596F21F400615967C3F8C02004
S214400D30C3F8D420C3F8B020F8BD00BF50180E400A
S214400D4000ED00E0000C0E400C08005A6D1140000B
S214400D5000120E4001637047416370474264B1F130
S214400D60C05F3AD013D8B1F1006F25D0B1F1805FA3
S214400D700AD1036F13430367436F416F0B4023EA67
S214400D8002034367426070470029FBD17047B1F1C8
S214400D90205F21D009D8B1F1005FF3D1036F134330
S214400DA00367436F13434367ECE7B1F1405F13D0EB
S214400DB0B1F1605F10D0E5E710B4016F046FD34324
S214400DC021401C4619400167436F416F0B4023404A
S214400DD0436742605DF8044B7047036F016F0B40FA
S214400DE023EA02030367436F13434367CAE741643A
S214400DF012F0010F0DD1016612F00A0F0BD00162FE
S214400E0012F0020F09D112F0080F08D0C0F8841073
S214400E1005E04166F0E74162F2E7C0F880104161C4
S214400E200160704710B4019C41644CB901664BB1F7
S214400E3001654AB94163016101605DF8044B704742
S214400E404166F4E74165F4E70163F4E770B582B0C4
S214400E50054616461C46B1F1005F14D00AD9B1F1DA
S214400E60405F24D0B1F1605F21D0B1F1205F17D050
S214400E7000201AE0B1F1805F05D0B1F1C05F02D02A
S214400E80B1F1006FF4D132462846114B984714F022
S214400E90010F02D12E66012007E06E66012004E0B5
S214400EA01A4631460B4B9847012002B070BD04F0FD
S214400EB001030093C4F38003B1F1605F14BF0022C6
S214400EC0012231462846044CA0470120EDE700BFEA
S214400ED05D0D4000EF0D4000250E4000836B0B4239
S214400EE014BF01200020704712F0100F12D0C0F837
S214400EF0B01012F0200F07D0C0F8D41012F0400FF8
S214400F0005D0C0F8C0107047C0F8D010F6E7C0F85B
S214400F10C4107047C0F8B410704701647047C06C86
S214400F207047806C704700002DE9F04104468846C3
S214400F300E4B9847054620460D4B9847054013D024
S214400F400C4C04F1600603E0B4420DD010345DB1A1
S214400F5020684045F8D161682942F5D0E368984753
S214400F60636825EA0305EFE7BDE8F0811F0F400000
S214400F70230F4000F00B4020F8B5184C2668062E8C
S214400F802AD84FF0000C6446154F04E00134E4B212
S214400F90A446A64209D3A64625017D598D42F5D1E1
S214400FA007EB04156D689542F0D10D4D4FEA0E1EC5
S214400FB005EB0E0445F80E106260A3600699E160EA
S214400FC00136664505D011461A46064B984700201E
S214400FD0F8BD02490E60F6E70120F8BD600C4020DF
S214400FE0F00B4020E90E400008B50A210148024BAC
S214400FF0984708BD000E0E40290F400008B50B214B
S2144010000148024B984708BD00100E40290F40008B
S21440101008B50C210148024B984708BD00120E4007
S214401020290F400008B510210148024B984708BDDB
S21440103000140E40290F400008B511210148024B0C
S214401040984708BD00160E40290F4000032811D0CF
S214401050042812D002280CBF4FF480710021084AA1
S214401060136B23F440730B431363936E13F0080F14
S214401070FBD070474FF44071F1E74FF40071EEE754
S21440108000060E40174A136B23F070031843106394
S214401090936E13F0080F0AD14FF4805311498A6EAD
S2144010A012F0080F03D1013BF9D1012070470D4AD9
S2144010B0136B23F0030343F002031363936E13F0A2
S2144010C0080F0AD14FF4805306498A6E12F0080F73
S2144010D005D1013BF9D10120704700207047002020
S2144010E0704700BF00060E40A0B90E48036A0902CA
S2144010F089B20D4A1A400D4B13431943016202460A
S214401100936E13F0010FFBD0064A116A084B0B434F
S2144011101362704703490B6A064A1A40064B13434C
S2144011200B62704700060E40FCFFC8FF0100370008
S21440113000003701FCFFC8FE02003701024B986EE4
S21440114000F48030704700BF00060E404FF000525B
S214401150014B9A62704700BF00060E40024B986EE5
S21440116000F00200704700BF00060E403F281ED821
S2144011701F280CD8114B9A6901238340934318D0FB
S214401180012303FA00F00D4B186100207047203809
S2144011900A4BD3F808210123834093430BD0012305
S2144011A003FA00F0054BC3F8000100207047012009
S2144011B07047002070470020704700BF00060E4072
S2144011C03F2822D81F280ED8114B9A690123834006
S2144011D0934301D000207047012303FA00F00C4BE4
S2144011E05861002070472038094BD3F80821012366
S2144011F08340934301D000207047012303FA00F058
S214401200034BC3F80401002070470120704700BF1D
S21440121000060E40FEE7000000B583B0254B264A88
S2144012209A4210D0254B234A9A420CD2013B9B1A35
S21440123023F00303043313441F4951F8040B42F8C8
S214401240040B9A42F9D11E4B1E4A9A420AD2013BDF
S2144012509B1A23F0030304331344002142F8041B73
S2144012609342FBD1184A194B23F07F039360EFF368
S2144012701083B3FA83F35B09019372B6BFF35F8FB3
S2144012800022134B1A700199124A136843F47003F4
S2144012901360BFF34F8FBFF36F8F29B101220C4B02
S2144012A01A70BFF35F8F62B60B4B98470B4B98474D
S2144012B0FEE700BF00004020DC754000D00940201B
S2144012C0700D4020D009402000ED00E000004000B6
S2144012D01800402088ED00E06D19400029194000B4
S2144012E03B4B1B6B03F00303012B1DD083B1022B3A
S2144012F036D0374B1B6B03F07003702B5FD0344BEC
S2144013001A6B3449C2F302120B68D3400B60704725
S214401310314B5B6913F0800F14BF4FF400424FF41B
S214401320FA422C4B1A60E4E7294B1B6A13F0807F85
S21440133003D02A4A274B1A60DBE7294A254B1A6016
S214401340234B1B6A03F07003102B05D0202BD0D103
S214401350224A204B1A60CCE7224A1E4B1A60C8E746
S2144013601B4B1B6A13F0807F16D01C4A194B1A6021
S214401370174B1B6B03F00303022BBAD1144A916A36
S214401380926A1448C1F30A41036801FB0333D2B2A0
S214401390B3FBF2F30360ACE7114A0E4B1A600C4BFA
S2144013A01B6A03F07003102B05D0202BE0D10B4AAC
S2144013B0084B1A60DCE70B4A064B1A60D8E7054A2A
S2144013C013680949A1FB03135B081360704700BF0D
S2144013D000060E401C00402010180E40001BB700B0
S2144013E000093D0000127A00ABAAAAAA164B984202
S2144013F013D9164B984215D9154B984216D9154B0A
S214401400984217D9144B984218D9144B984294BF17
S214401410134A144A144B1A6070474FF08062124BBE
S2144014201A607047114A104B1A607047104A0E4BAC
S2144014301A6070470F4A0C4B1A6070474FF00422F0
S214401440094B1A60704700BFBFF35E017FE7BD02DD
S2144014503FDB1C04FFCE7B05BFC2DA067FB63908E9
S2144014600005000400060004000C0E4000010004C5
S21440147000020004000300040A4B1B6853B1094BEA
S2144014801B681A180849914208DB1046054A106046
S21440149018467047054A034B1A60F0E74FF0FF3096
S2144014A0704700BF640C4020FCFF4520702F402052
S2144014B07047000070B500220D4B1A7001210D4890
S2144014C00D4EB0470D4D012128460D4CA047082132
S2144014D02846A04710212846A04720212846A04756
S2144014E01820084B98474FF080410748B04770BDDA
S2144014F0AC0C4020000E0E40550D400060180E40CB
S21440150001044000C111400000120E4070B584B086
S214401510204B1B78D3B901241E4B1C701E4B1C70ED
S2144015201E4A12681B781E4909681E4800680290C9
S21440153001940B440093234621461B481B4DA84765
S21440154021461B481B4B984704B070BD124E33785B
S2144015500133DBB23370144C01212046164DA847A8
S21440156008212046A84710212046A847202120468B
S214401570A8470A4B1A683378094908680949096830
S214401580029101210191034400930B462046074CEB
S214401590A047D9E7AC0C4020460D4020A80C402080
S2144015A0A40C4020A00C402060180E40B102400021
S2144015B0000E0E40590D40000104400038B5044668
S2144015C00D46064B984720B929462046044B984777
S2144015D038BD29462046034B984738BDDD0E4000AF
S2144015E0550D4000590D400000B583B001210B4811
S2144015F00B4B98470190019B0A4B1B783BB9094A15
S214401600137883F00103137003B05DF804FB4FF0CA
S21440161080410548054B9847F1E700BF00C00040B1
S214401620810540009C0C402000120E40BD15400035
S214401630F0B583B006460A200A4FB8470024009407
S2144016402346324601210848084DA8470C20B84793
S2144016500094234632464FF080410548A84703B0E1
S214401660F0BD00BF6D114000000E0E40250E40003C
S21440167000120E402DE9F04385B006460C4617464C
S21440168098460846184B9847184D009502AB03AA53
S21440169029464046DFF86C90C847029A42F480429A
S2144016A039463046124B9847039AB5FBF2F2B2FBE6
S2144016B0F8F2394630460F4B984763B25B0904F060
S2144016C01F04012202FA04F40B4A42F82340102277
S2144016D039463046094B984739463046084B984776
S2144016E005B0BDE8F08300BF6D11400000A3E111D6
S2144016F04F0540007105400000E100E079054000DC
S214401700690540008905400070B59AB02348244BCF
S2144017109847044610F0040F12D114F0020F2DD152
S2144017201E4D012128461F4CA04708212846A047A9
S21440173010212846A04720212846A0471AB070BD51
S214401740164E04213046174B9847174D2B46174ADE
S21440175017493046174EB0472B68002BDDD1144B47
S2144017601A68124B1B68144901A8144DA847144B1D
S2144017700022114601A8134DA847CEE704230122B4
S21440178018211148114CA04702210448054B9847A0
S21440179001210F480F4B9847C2E700BF60180E4024
S2144017A0FD03400001044000A00C4020A40C402053
S2144017B0A80C4020C701400020734000591A400042
S2144017C00C004020D907400000C00040751640007D
S2144017D0000E0E40550D40002DE9F04782B0102017
S2144017E02A4FB8472A4C09224FF080512046DFF84E
S2144017F0BC90C8474FF080512046DFF8B480C047C1
S214401800244B009350234FF0805210212046224E06
S214401810B047224C4FF480332360202584F8105381
S2144018200C20B847DFF88CA009224FF00041504604
S214401830C8474FF000415046C047194B00935023CD
S2144018404FF000420C215046B0474FF4805323607F
S21440185084F80C530A20B847124F09224FF400214F
S2144018603846C8474FF400213846C0470E4B0093D1
S21440187050234FF400220A213846B0474FF4806385
S214401880236084F80A5302B0BDE8F0876D1140002B
S21440189000140E400D154000790F400000E100E0B6
S2144018A0B1144000000E0E40B5144000EF0D40004D
S2144018B01B0F400000120E4030B583B00220134B81
S2144018C09847134C00212046124B98470C23009310
S2144018D01323032240F2E27120460F4DA84700230F
S2144018E00A220F2120460D4DA8470D4B0422C3F86F
S2144018F08020C3F88021002183F802131A60062155
S2144019002046084B984703B030BD00BF6D114000DD
S21440191060180E40AD0140004503400021024000E3
S21440192000E100E0C301400008B5094B9847094B69
S21440193098474FF40042084B5A60084B9847084B6C
S21440194098470120074B9847074B9847FEE700BF4C
S214401950150C4000A50B400050180E407108400082
S214401960D917400031164000B918400070B50F4EE8
S2144019700F4D761BB61018BF002405D0013455F81D
S214401980043B9847A642F9D10A4E0B4D761B05F00C
S2144019900FFEB61018BF002406D0013455F8043B9D
S2144019A09847A642F9D170BD70BD00BFBC754000D7
S2144019B0BC754000C4754000BC75400070B48607D6
S2144019C046D0541E002A41D0CAB2034602E014F163
S2144019D0FF343BD303F8012B9D07F8D1032C2ED9B7
S2144019E0CDB245EA05250F2C45EA054519D903F140
S2144019F010022646103E0F2E42F8105C42F80C5C51
S214401A0042F8085C42F8045C02F11002F2D8A4F1F5
S214401A10100222F00F0204F00F041032032C13447D
S214401A200DD91E462246043A032A46F8045BFAD8E5
S214401A30221F22F003020432134404F003042CB1A4
S214401A40C9B21C4403F8011B9C42FBD170BC7047D2
S214401A5014460346C2E700BF0EB4F0B59CB021ABB7
S214401A600F4953F8042B019305466FF0004408686D
S214401A7002954FF402774FF6FF7602A90695ADF829
S214401A80147004940794ADF8166000F00BF8029BAF
S214401A9000221A701CB0BDE8F04003B0704700BF8B
S214401AA0200040202DE9F04FC3B00C460B919246E3
S214401AB00F930C9002F00CFA03681A93184603F042
S214401AC0DFF8A3891990190603D52369002B01F086
S214401AD0038000230DF1C80913931593149327939D
S214401AE0269318931B930993CDF89490C846169363
S214401AF017939AF800305446E3B1252B02D119E0EB
S214401B00252B03D014F8013F002BF9D1A4EB0A058E
S214401B1085B1269B279AC8F800A001332A44072B94
S214401B20C8F80450279226937FDC08F10808099BE2
S214401B302B4409932378002B7FD000231A468DF838
S214401B40773019460D939B464FF0FF3063780A90E6
S214401B5004F1010A0AF1010AA3F12000582800F214
S214401B60C183DFE810F03802BF03BF034002BF0363
S214401B70BF03BF03BF03BF03BF0345020302BF0348
S214401B805D006B02BF0386029D039D039D039D037C
S214401B909D039D039D039D039D03BF03BF03BF039A
S214401BA0BF03BF03BF03BF03BF03BF03BF03370368
S214401BB05703BF035703BF03BF03BF03BF039803C7
S214401BC0BF03BF03AD03BF03BF03BF03BF03BF03D2
S214401BD05902BF03BF031E03BF03BF03BF03BF03B8
S214401BE0BF03BF03BF03BF03BF03BF03C602DB027F
S214401BF05703570357038B02DB02BF03BF03900212
S214401C00BF039D02CC01B4020802BF03E101BF033B
S214401C107E00BF03BF030D020D980F9340420D9008
S214401C204BF0040B9AF8003094E725AA0B990C98D1
S214401C3003F094F840B9C84679E7279B23B10C983F
S214401C400B9925AA03F08AF80B9B9B8913F0400F4B
S214401C50099B18BF4FF0FF330993099843B0BDE87E
S214401C60F08F1BF0200F119340F0DD810F9A1BF090
S214401C70100F134640F06E851BF0400F00F06A854B
S214401C8014880432002501230F9200278DF87770C0
S214401C900A994A1C00F065822BF08002079254EAAB
S214401CA0050240F06482002940F03C84002B40F05E
S214401CB0D7841BF001030E9300F0048642AE302317
S214401CC006F8413D0A9B0E9A9342B8BF13460893C6
S214401CD00023129317B1089B01330893079B13F018
S214401CE00203109302D0089B02330893079B13F01D
S214401CF0840540F00E830D9B089AA3EB020BBBF1C4
S214401D00000F40F30683BBF1100F279C269A29DD6F
S214401D1043462146A84610270C9C0B9D06E0ABF197
S214401D20100BBBF1100F03F1080318DD0132B74862
S214401D3026921031072A279183E88100EFDD25AAF5
S214401D402946204603F00AF800287FF47DAFABF121
S214401D50100BBBF1100F2799269A4B46E6DC4546FA
S214401D600C4698460132A94B26925C44072A279493
S214401D7088E8080800F398849DF8777008F108080A
S214401D8077B1269B013301340DF177010122072BF1
S214401D902794269388E8060000F3DB8308F10808BA
S214401DA0109B6BB1269B013302341EA90222072BDF
S214401DB02794269388E8060000F3D68308F108089F
S214401DC0802D00F015830A9B0E9A9F1A002F36DD51
S214401DD0102F269B8E4D27DD42462146B0464FF0BB
S214401DE0100B2E460C9C0B9D04E0103F102F02F16A
S214401DF0080215DD01331031072B2791269382E820
S214401E004008F2DD25AA2946204602F0A7FF002812
S214401E107FF41AAF103F102F2799269B4A46E9DCDD
S214401E2035460C464646904601333C44072B27949D
S214401E30269388E8A00000F3818308F10808079BF2
S214401E40DF0500F16882269B0E99C8F800600133D2
S214401E500C44072B2794C8F80410269300F34D83B0
S214401E6008F10808079B5B073AD50D9B089A9D1A10
S214401E70002D35DD102D269B20DD10260C9FDDF82D
S214401E802CB004E0103D102D08F1080816DD013393
S214401E905E4A26931034072B279488E84400F1DDE9
S214401EA025AA5946384602F059FF00287FF4CCAEA2
S214401EB0103D102D279C269BC846E8DC0133534A2C
S214401EC026932C44072B279488E8240008DD25AA6F
S214401ED00B990C9802F042FF00287FF4B5AE279C81
S214401EE0099B0D9A08998A42ACBF9B185B180993C8
S214401EF0002C40F00D8300232693C846F9E5119345
S214401F001BF0200340F0E3811BF0100240F02E84CB
S214401F101BF0400300F02A840F9913460A46043209
S214401F200C880F920025B0E60F9A1193166800248D
S214401F308DF87740151D002E00F0A7860A9A531C90
S214401F4000F009862146304602F08AFA002800F062
S214401F50E186831B0E930A940F95CDF81CB023EAB6
S214401F60E373089312949DF87770B3E69AF80030BE
S214401F7001222B21EEE54BF0200B9AF80030E9E5E4
S214401F801193002A40F09587224B18931BF0200FA0
S214401F9040F011810F9A1BF0100F134640F0E1837A
S214401FA01BF0400F00F0DD83043314880F930025A8
S214401FB01BF0010F00F00C8154EA050300F0088185
S214401FC030239DF844208DF878308DF879204BF0FA
S214401FD0020B022359E69AF8003000297FF4BAAD86
S214401FE001222021B6E54BF0010B9AF80030B1E50E
S214401FF00F9C23680D9318460028234603F10403DC
S214402000FFF60AAE0F939AF80030A3E570734000CF
S21440201080734000507340004BF0100B1BF0200FB5
S21440202011933FF423AE0F9D073525F0070303F1C8
S2144020300802D3E900450F92012326E69AF80030BD
S2144020402A2B0AF1010400F02787A3F13000092863
S214402050A24600F2AD8600231C461AF8013B04EB6C
S214402060840400EB4404A3F130000928F5D90A940F
S21440207072E54BF0800B9AF800306BE54BF0400B66
S2144020809AF8003066E59AF800306C2B03BF9AF851
S21440209001304BF0200B0AF1010A4BF0100B59E5CA
S2144020A0002A40F011871BF0200F40F0F9841BF007
S2144020B0100F40F0AC841BF0400F00F0A8840F9A3D
S2144020C0136804320F92BDF824201A8011E50F9948
S2144020D0B34B0C6818933022782304318DF879304E
S2144020E011934BF0020B0F9100258DF878200223B8
S2144020F0CBE50F9911930A688DF8A02000230A4675
S2144021001F468DF87730043201230893CDF81CB073
S2144021100A9712970F920E9328AEDFE51193002A86
S21440212040F0EA861BF0200F5DD11BF0100F40F008
S21440213008831BF0400F00F004830F99B1F900406C
S2144021400431E51722462B460F91002A73F100030F
S21440215058DB0A999DF877704A1C4FF001037FF4CC
S2144021609BAD54EA050200F0DF81CDF81CB0012B90
S21440217000F07B82022B40F0068218984E462309D8
S21440218004F00F0143EA05732A091C461546435CD2
S21440219006F8013D54EA0503F1D1A9EB06030E9378
S2144021A090E51193002A40F0A3867E4B18931BF0CF
S2144021B0200F3FF4EFAE0F9D073525F0070303F1E0
S2144021C008021BF0010F0F92D3E900457FF4F4AEEE
S2144021D002235AE51193002A40F086864BF0100BF6
S2144021E01BF0200FA1D00F9D073525F00705D5E938
S2144021F00023002A05F108011D4673F100030F91E4
S2144022001446A6DA2D27644265EB45058DF87770AF
S21440221001233DE51193002A40F062860F9D073565
S21440222025F0070303F108020F921A6815925B68BF
S2144022301493149B159D23F00044284621464FF0E6
S214402240FF32594B03F050FE002840F04A832846A0
S21440225021464FF0FF32544B03F028FE002840F052
S214402260408315A80DC8149903F016FE002840F0C8
S21440227030859DF877704D4E4D4B2BF08000079083
S21440228011980322002108920A914728D8BF1E467B
S2144022900E9212911EE54BF0080B9AF8003059E466
S2144022A0A3F1300000231C461AF8013B04EB8404DB
S2144022B000EB4404A3F130000928F5D90D944BE413
S2144022C04BF0100B11931BF020033FF41DAE0F9DF7
S2144022D0073525F0070303F10802D3E900450F92BE
S2144022E00023D2E41193002A40F0E785119A002A91
S2144022F03FF4A3AC002301211F4608918DF8A0208F
S214402300CDF81CB08DF877300A9312930E9128AE14
S214402310E4E4279C34E5119B652B40F3A78015A881
S2144023200DC8149903F0AEFD002800F05081269B9E
S214402330204AC8F80020013301340122072B279495
S2144023402693C8F8042000F36A8308F108081F9B08
S214402350139A279C934203DB079BDD077FF582ADEC
S214402360269B19991A9AC8F8002001330C44072B6B
S214402370C8F804102794269300F39E8308F10808B3
S214402380139B5E1E002E7FF76DAD102E269B0A4DCA
S21440239040F3F58122461027DDF830B00B9C13E061
S2144023A0507340003C734000FFFFEF7F30734000A7
S2144023B02C7340006C7340008073400008F108089E
S2144023C0103E102E40F3DA8101331032072B27924D
S2144023D0269388E8A000F1DD25AA2146584602F05B
S2144023E0BDFC00287FF430AC279A269BC846E7E71A
S2144023F00D9B089A9F1A002F7FF7E5AC102F269B5F
S214402400B64D27DD42462146B0464FF0100B2E46CD
S2144024100C9C0B9D04E0103F102F02F1080215DDC6
S21440242001331031072B2791269382E84008F2DDCE
S21440243025AA2946204602F091FC00287FF404ACE9
S214402440103F102F2799269B4A46E9DC35460C4616
S2144024504646904601333C44072B2794269388E80B
S214402460A00000F3328208F10808ACE4139B269FD4
S214402470012B40F3FE81013701340123072F2794B7
S2144024802697C8F80060C8F8043000F3038208F1C5
S2144024900808199A1A9BC8F8003001371444072FC9
S2144024A027942697C8F8042000F3008208F108080D
S2144024B015A80DC8149903F0E5FC139B002840F0BE
S2144024C00181013B013701361C44072F269727948C
S2144024D0C8F80060C8F8043000F3278108F10808FF
S2144024E01B9AC8F804200137144421AB072F2794C1
S2144024F02697C8F800307FF7B3AC25AA0B990C98FE
S21440250002F02CFC00287FF49FAB279CC846A9E429
S21440251025AA0B990C9802F021FC00283FF4EBAC5E
S214402520FFF792BBDDF81CB0012B00F03481022B84
S21440253025D1CDF81CB0002400251EE625AA0B990F
S2144025400C9802F00BFC00287FF47EAB279CC84614
S21440255075E425AA0B990C9802F000FC00287FF43D
S21440256073AB279CC8461BE425AA0B990C9802F02F
S214402570F5FB00287FF468AB279CC84620E4CDF8DE
S2144025801CB000240025494600E03146E20842EAF5
S2144025904572E80804F0070305461446303354EA0B
S2144025A0050201F8013C01F1FF36EED1079AD20749
S2144025B07FF5F3AD302B3FF4F0AD0239302306F80B
S2144025C0013CA9EB01030E930E46FFF77BBB1F9918
S2144025D0002940F32E82129B139A9342A8BF1346BB
S2144025E0002B1F460DDD269BC8F8006001333C4497
S2144025F0072B2794C8F80470269300F31F8308F12E
S2144026000808129B002FA8BFDB1B002B1F4640F379
S214402610D680102F269B314D40F3ED814246214611
S214402620B0464FF0100B2E460C9C0B9D04E0083233
S214402630103F102F40F3DB8101331031072B2791D9
S214402640269382E84008F2DD25AA2946204602F075
S21440265085FB00287FF4F8AA2799269B4A46E7E799
S2144026600A9B0E934E46FFF72DBB002D08BF0A2C43
S214402670C0F08F804E46204629460A22002303F0AB
S21440268071FC303206F8012D2046294600230A22E6
S21440269003F068FC04460D4654EA0503EBD1A9EB6B
S2144026A006030E93FFF70EBB25AA0B990C9802F073
S2144026B055FB00287FF4C8AA9DF87770279CC8462B
S2144026C0FFF75EBB5E1E002E7FF70AAF102E034D4F
S2144026D022DD22464FF0100B0C9C06E08073400033
S2144026E0103E102E08F1080815DD01371032072F6E
S2144026F02792269788E82008F2DD25AA0B992046DF
S21440270002F02CFB00287FF49FAA103E102E279A3A
S214402710269FC846E9DC144601373444072F2794E1
S214402720269788E860007FF7D9AE25AA0B990C98C3
S21440273002F014FB00287FF487AA279C269FC846F1
S214402740CEE60F9A146813460433E5170F932246D5
S2144027502B46FAE404321C680F9201230025FFF74B
S21440276094BA1C6804330F93002521E40F990A4657
S21440277004320C680F920025FFF787BA14460133DF
S2144027803444072B2794269388E860007FF768AB8D
S214402790B3E6DDF81CB0CDF81CB042AE30340123B1
S2144027A006F8414D0E93FFF78DBA25AA0B990C9863
S2144027B002F0D4FA00287FF447AA279CC8461F9AFE
S2144027C0139B9A4244DB079BD90741D4139B12982C
S2144027D09A1A1D1A9542A8BF1546002D0EDD269959
S2144027E0C8F80450013106442C440729C8F8006054
S2144027F02794269100F33B8208F10808002DACBFD1
S214402800561B1646002E7FF72DAB102E269BB04D3E
S214402810B5DD22461027DDF830B00B9C04E008F109
S2144028200808103E102EA9DD01331032072B2792E0
S214402830269388E8A000F2DD25AA2146584602F0F5
S2144028408DFA00287FF400AA279A269BC846E8E718
S214402850269B19981A99C8F8001001330444072B90
S2144028602794C8F80400269300F3F58108F1080879
S214402870ACE7079BDA073FF5FEAD0137013401238D
S214402880072F27942697C8F80060C8F804307FF7CB
S21440289025AE4AE725AA0B990C9802F05FFA002865
S2144028A07FF4D2A9279C269FC846F2E525AA0B9915
S2144028B00C9802F053FA00287FF4C6A9279C269F5E
S2144028C0C846F5E54E46FFF7FDB925AA0B990C9884
S2144028D002F044FA00287FF4B7A9279CC846FFF7C1
S2144028E072BA159C22462046149C2346214603F085
S2144028F0FBFA002840F086820A9B0133119B23F0A6
S21440290020030E9300F0E281472B00F01E814BF42B
S21440291080730793149B1F1E159B0893BBBF3B46B3
S21440292003F1004700232D231093119B662B00F0E4
S214402930BB81462B00F0DF800E9B089A452B0CBFD0
S2144029400A9B0A9D23A820A908BF5D1C04900391FA
S2144029501FA802213B460290019500910C9800F07A
S21440296073FB119B672B064640F0E0811BF0010F7E
S21440297000F046827419169A0898179B394603F059
S21440298081FA002840F06581239BA34206D230217D
S2144029905A1C23921970239B9C42F9D89B1B139375
S2144029A00E9B472B00F0E980119B652B40F3CD81B1
S2144029B0119B662B1F9B129300F09E81139B129ACD
S2144029C01946914200F38A811BF0010F40F01382B2
S2144029D022EAE273089367230E921193109B002B12
S2144029E040F0C4800A939DF87770FFF773B9354678
S2144029F00C464646904601333C44072B2794269384
S214402A0088E8A0003FF7D1AE08F10808D7E60F9A4D
S214402A10136804320F92099A1A60FFF76AB825AA1B
S214402A200B990C9802F09AF900287FF40DA9C84635
S214402A308DE4269B274AC8F8002001330134012242
S214402A40072B27942693C8F8042072DC08F1080860
S214402A5029B9139B1BB9079BD8077FF503AA269B6A
S214402A6019981A9AC8F80020013302462244072BC8
S214402A702792C8F80400269300F38D8108F10808D1
S214402A800029C0F265811399C8F8006001338C189C
S214402A90072B27942693C8F804107FF7E1A92CE566
S214402AA00F9A09991368CD170846043229460F92A3
S214402AB0C3E90001FFF71DB825AA0B990C9802F050
S214402AC04DF900287FF4C0A8279CC84658E400BFAC
S214402AD0807340006C73400040210C9801F00AFA65
S214402AE00B9A10601061002800F0F2810B9A402388
S214402AF05361FEF7EEBF23A820A90A9C04900391D9
S214402B001FA803210290089A01943B4600910C9816
S214402B1000F09AFA25460646119B462B06EB05041E
S214402B207FF429AF3378302B00F078811F9D2C44FA
S214402B3021E725AA0B990C9802F010F900287FF49B
S214402B4083A81F99279CC84682E70A9B002B08BF8C
S214402B5001230A93DBE630460A9402F091F80F957B
S214402B600E90CDF81CB00346FFF7F9B92D27002389
S214402B708DF877700A93FFF7AEB81F9B12931A46EC
S214402B80033304DB0A9B19469142BFF617AF119BED
S214402B90023B11939DF844308DF88430129B013BE4
S214402BA0002B1F93BDBF129BC3F101032D222B2286
S214402BB0092B8DF8852040F316810DF193042046AD
S214402BC0AB4D00E0104685FB0312D917C1EBA201BE
S214402BD001EB8102A3EB42023032092900F8012CB6
S214402BE00B4600F1FF32EDDC30330238D9B2844276
S214402BF002F8011C40F265810DF18600134601E0A3
S214402C0013F8011B00F8011BA342F9D101339B1AAC
S214402C100DF18602134421AA9B1A139A1B93012A8C
S214402C2013440E9340F319810E9B199A13440E9346
S214402C3023EAE373089300231293CFE625AA0B9961
S214402C400C9802F08BF800287EF4FEAF279CC8460E
S214402C50D7E42346A2E625AA0B990C9802F07EF804
S214402C6000287EF4F1AF1F9A279CC846AEE525AAF9
S214402C700B990C9802F072F800287EF4E5AF1F9A84
S214402C80139B279C9A1AC846B8E50A9B1296062BB1
S214402C9028BF06230A96374608930F95CDF81CB0F2
S214402CA00E93744EFFF716B823A820A90A9D0490E9
S214402CB003911FA803210290089A01953B46009174
S214402CC00C9800F0C1F9064644192BE706230A93F0
S214402CD01DE62D278DF87770FFF7CDBA199A139B0E
S214402CE01344129A0E93002A40F3B08023EAE3730B
S214402CF008936723119371E6002B40F3C3800A9A2A
S214402D00002A40F099801BF0010F40F09580089310
S214402D100E9363E60A9B08930E930A900F95CDF8A0
S214402D201CB012909DF87770FEF7D4BF119B472BCE
S214402D307FF420AE1BF0010F7FF4EEAE239B9B1B6F
S214402D4013930E9B472B3FF418AF1F9B129321E71C
S214402D504F421031484D2FDA1024DDF830B004E0F1
S214402D6008F10808103F102F26DD01331032072BDC
S214402D7027922693C8F80050C8F80440F0DD25AAEC
S214402D800B99584601F0EAFF00287EF45DAF279A7B
S214402D90269BC846E6E725AA0B990C9801F0DEFF6D
S214402DA000287EF451AF1F99279A269BC84667E6AF
S214402DB000200A90FEF7D0BE01333A44072B88E83D
S214402DC0A0002792269308F108087FF75CAE25AA54
S214402DD00B990C9801F0C2FF00287EF435AF279A75
S214402DE0269BC8464FE6303330228DF887308DF824
S214402DF0862022AB0FE7129B199A13440E9375E771
S214402E00239BCBE5149B1D4E002BB6BF2D279DF86C
S214402E1077708DF877701A4BFFF72FBA169A089886
S214402E20179B394603F02EF800287FF47FAEC5F195
S214402E3001051F952C449EE5129B199A13440A9A45
S214402E401A4422EAE2730E920893C7E5129B0E9A42
S214402E50C3F101031A441346D0E71BF00103129353
S214402E607FF4E2AE0E9B23EAE3730893B6E500BF19
S214402E70676666666473400080734000387340003F
S214402E80347340000A9B13B91BF0010F02D0199B04
S214402E900133D4E701233AE70F9D9AF801302868BA
S214402EA040EAE0700A9028460430A2460F90FEF7AB
S214402EB051BE8DF87710FFF767B88DF87710FFF79B
S214402EC015BA0DF18603A6E68DF87710FFF7EBB836
S214402ED00C9A0C2313604FF0FF330993FEF7BDBEE8
S214402EE08DF87710FFF79AB98DF87710FFF776B917
S214402EF08DF87710FFF759B98DF87710FFF712B9AC
S214402F00024B13B1024800F005B8704700000000BD
S214402F109D3E4000002301461A46184601F09CBFDD
S214402F2002690B69934200F38D802DE9F04F03F15F
S214402F30FF3801F1140700F1140B57F828205BF80E
S214402F4028304FEA880483B00132B3FBF2F90BEB2A
S214402F500403009407EB040A0193B9F1000F39D03B
S214402F6000252E46BC46DE465CF8044BDEF80030B4
S214402F70A2B209FB0255220C2C0C09FB0242ADB250
S214402F80751B96B2C6EB134615FA83F306EB23463B
S214402F909BB243EA0643E2454FEA12454EF8043BED
S214402FA04FEA2646E0D2009B5BF8033093B9019C7B
S214402FB0231F9B450CD254F8043C4BB9A4F108039C
S214402FC002E01A68043B1AB99B4508F1FF38F8D36B
S214402FD0C0F81080044601F037FD00282EDB09F1CA
S214402FE001095D46002357F8041B28688AB29A1ADE
S214402FF00B0C12FA80F2C3EB104303EB224392B25F
S21440300042EA0342BA4545F8042B4FEA2343EAD244
S2144030105BF828200BEB880382B91A1F93450BD226
S21440302053F8042C42B9083B02E01A68043B1AB92C
S2144030309B4508F1FF38F8D3C4F81080484603B0E3
S214403040BDE8F08F002070472DE9F04F016C9BB033
S2144030500446279E92469B4641B1426C4A600123F5
S21440306093408B6001F018FB00232364BBF1000FF4
S2144030705D4635DB002333609D4BAB4315D0504651
S21440308059460022002302F0FDFE804600282DD03F
S214403090269A01231360289B002B00F0BD8095489C
S2144030A0186001381BB0BDE8F08F269A42F20F73C5
S2144030B01360BAF1000F0DD1C5F3130555B9289B1F
S2144030C08D48002BEED000F10803289A13601BB001
S2144030D0BDE8F08F289B8948002BE3D0C31CF4E75B
S2144030E001232BF000453360AB46C5E718AA19AB61
S2144030F00192009352465B46204601F045FD2B0D5B
S214403100814671D0CBF3130242F07F51189FCDF821
S21440311050805046A3F2FF3641F440110022784BCF
S21440312002F094FA6CA3D3E9002302F043FC6CA3AC
S214403130D3E9002302F08CFACDE90201304602F0D2
S214403140D3FB69A3D3E9002302F034FC02460B46C6
S214403150DDE9020102F07CFACDE9040102F0DAFE74
S214403160002202900023DDE9040102F095FE0028CB
S21440317040F07381029D162D00F25D81614B03EB9A
S214403180C503D3E9000152465B4602F0A3FE002881
S21440319000F0C5816B1E029300230E93BF1B7B1E5F
S2144031A0069300F1548100230893029B002BC0F243
S2144031B04581069A0D9311461944002306910C93B7
S2144031C0249B092B2AD8052B40F35B86043B24938B
S2144031D00025249B023B032B00F24286DFE813F0D7
S2144031E0D403C902DF036104189F199E3E4406F2C9
S2144031F03243202B40F38E81C3F1400306F2124047
S2144032009D402AFA00F0284302F05EFB0123013E6F
S214403210A1F1F871149381E73B4843E700216164CC
S2144032202046259101F012FA4FF0FF330A93259A73
S2144032300F9301230490206424920B93199B002B38
S214403240C0F2D980029A0E2A00F3D5802D4B03EBAC
S214403250C203D3E90023CDE90823259B002BC0F207
S214403260BA83DDE9085650462A463346594602F0A8
S214403270CBFC02F04FFE804602F036FB2A46334631
S21440328002F098FB0B4602465946504602F0DEF9DD
S214403290049D08F130032B700A9B012B06460F460F
S2144032A005F1010568D00022184B02F083FB00228E
S2144032B0002306460F4602F0E5FD002840F08880D1
S2144032C0CDF82C904FF0000ADFF840B00C94DDE9C2
S2144032D0088928E0AFF3008061436F63A787D23F39
S2144032E0B3C8608B288AC63FFB799F501344D33FB0
S2144032F00000F07F6D734000907340009C73400068
S2144033000000F83FC87340006C7340000000244043
S21440331002F050FB0022002306460F4602F0B2FDA4
S214403320002840F0C18342464B463046394602F0BC
S2144033306BFC02F0EFFD044602F0D6FA42464B46DE
S21440334002F038FB02460B463046394602F07EF91C
S21440335004F1300E049E05F801EBA5EB060E0A9E1E
S214403360B645CDE9060152465B46D1D1A046DDF8CA
S2144033702C900C9C06460F4632463B463046394615
S21440338002F066F906460F4602460B46DDE908019E
S21440339002F082FD48B932463B46DDE9080102F0BC
S2144033A071FDA8B118F0010F12D015F8018C049ADF
S2144033B06B1E04E09A4200F0018413F8018DB8F1C8
S2144033C0390F03F10105F5D008F1010883F80080B4
S2144033D04946204601F060F90022029B2A70269A50
S2144033E001331360289B002B00F09E8304981D60D9
S2144033F01BB0BDE8F08F0B9A002A3ED0249A012AD3
S21440340040F311830A9B0C9A5F1EBA42C0F28F8328
S214403410D71B0A9B002BC0F28B84089D0A9B089AF8
S2144034201A440892069A01211A442046069201F050
S214403430CDF9064624E001230E93AFE6089A029B98
S214403440D21A5B420C93002308920D93B8E6C7F15C
S2144034500103089300230693A7E6029D284602F040
S21440346043FA02460B46DDE9040102F00BFD002854
S2144034707FF480AE6B1E02937CE60C9F089D0B9EED
S214403480002D0CDD069900290B4608DDA942089A56
S214403490A8BF2B46D21AED1ACB1A089206930C9B5D
S2144034A0D3B10B9B002B00F0B782002F10DD3146C6
S2144034B03A46204601F026FA4A4601460646204647
S2144034C001F08EF949468046204601F0E5F8C146AF
S2144034D00C9BDA1B40F0A1820121204601F076F9D0
S2144034E00D9B002B80461CDD01461A46204601F007
S2144034F009FA249B012B804640F3548200230C9308
S214403500D8F8103008EB8303186901F00FF9C0F1C2
S214403510200010E0C3F120050AFA05F074E60E908C
S2144035203CE6249B012B40F3878200230C930D9BA3
S2144035300120002BE4D1069A104410F01F0000F042
S214403540A180C0F12003042B40F39E84089BC0F169
S2144035501C00034408931346034405440693089B03
S214403560002B05DD49461A46204601F01BFA8146E7
S214403570069B002B05DD41461A46204601F012FA0E
S21440358080460E9B002B40F086800A9B002B40F323
S21440359066820B9B002B00F09880002D05DD31469F
S2144035A02A46204601F0FEF906460C9B002B40F0CA
S2144035B0378306960A9B049ADDF818B0013BD31869
S2144035C00B930AF001030C931746C24651464846F1
S2144035D0FFF7A6FC31460546484601F035FA5A46FE
S2144035E00A905146204601F04BFAC268804605F1E3
S2144035F03003002A40F02B8201464846089301F0EB
S21440360023FA41460690204601F046F8069A089B63
S21440361032B9249921B90C9A002A00F0EF83249AF3
S2144036200A990029C0F29F8205D1249919B90C99AC
S214403630002900F09882002A00F306830B9A3B701C
S21440364007F101089742454600F00C83494600239F
S2144036500A22204601F02AF85E45814631464FF060
S21440366000034FF00A02204600F0EB8101F01EF8FE
S2144036705946064600230A22204601F017F84746D8
S2144036808346A3E71C20089B03440893069B0344F9
S2144036900544069363E74146484601F0D5F90028BD
S2144036A0BFF673AF029F494600230A222046013FD9
S2144036B0029700F0FBFF0B9B8146002B40F0B68341
S2144036C00F9B002B40F3BF830A93DDF810B00A9F90
S2144036D05D4602E000F0EAFF814641464846FFF775
S2144036E01FFC00F1300A05F801ABA5EB0B03BB420B
S2144036F04FF00A024FF0000349462046EADB049B9F
S2144037000A9A012AACBF9B1801331D464FF0000BA6
S21440371049460122204601F045F94146814601F0DE
S21440372093F9002840F33D8215F8012C04996B1E4E
S21440373004E08B4200F0AE8113F8012D392A03F1E4
S2144037400105F6D001321A704146204600F0A4FF2B
S214403750002E3FF43DAEBBF1000F05D0B34503D07D
S2144037605946204600F098FF3146204600F094FF28
S2144037702EE600230B93029B259A13440F930133A6
S214403780012B1F461E460A93B8BF01270021172F5C
S21440379061640AD9012204235B0003F114008742C6
S2144037A0114602F10102F7D26164204600F04EFF56
S2144037B00E2E049020643FF641AD002D3FF43EAD02
S2144037C002990029CDE910AB40F30282B84B01F0D4
S2144037D00F020D1103EBC203E906D3E9006740F17F
S2144037E0AE81B44B50465946D3E9082302F00CFA52
S2144037F0CDE9120105F00F054FF0030A8DB1DFF851
S214403800B482EA0709D530463946D8E9002302F0A3
S214403810D1F80AF1010A06460F466D1008F108086D
S214403820EFD13B463246DDE9120102F0EDF907469C
S21440383088460E9B43B100229F4B3846414602F0D5
S2144038402BFB002840F08682504602F04DF83A4660
S214403850434602F0AFF8994B002201F0F9FE0A9B6E
S2144038600546A1F15076002B00F03E81029B159351
S2144038700A9B12930B9B002B00F0FA81129A8C4BFA
S2144038808F4903EBC20353E90223002002F0BCF940
S2144038902A46334601F0DAFE82468B463846414693
S2144038A002F038FB054602F01FF802460B46384643
S2144038B0414601F0CBFE30355FFA85F8049D06465A
S2144038C00F4685F8008002460B465046594601355D
S2144038D002F000FB002854D132463B460020764991
S2144038E001F0B4FE02460B465046594602F0F2FA44
S2144038F0002840F07082129A012A00F01181129B33
S214403900049ACDF84890134499460DE000206A4941
S21440391001F09CFE52465B4602F0BEFA002840F09C
S21440392058824D4500F0FA80504659460022654B75
S21440393002F040F80022634B82468B4630463946BA
S21440394002F038F80F46064602F0E4FA804601F0E8
S214403950CBFF02460B463046394601F077FE08F16B
S21440396030085FFA88F852465B4605F8018B0646F3
S2144039700F4602F091FA32463B460028C6D0DDF8A4
S2144039804890159B029323E500230B93259B002B21
S21440399040F3DC801F461E460F930A93F6E601234B
S2144039A00B93F3E7BAF1000F7FF4A8ADCBF3130304
S2144039B0002B7FF4BAAD2BF000473F0D3F05002F9C
S2144039C000F00D82089B01330893069B0133069353
S2144039D001230C93ABE50A9B002B3FF742AC40F02B
S2144039E021820022384BDDE9080101F0E3FF524610
S2144039F05B4602F065FADDF828804646002841D04E
S214403A00259B049DDB4302934146204600F044FE3E
S214403A10002E3FF4DDACA7E60C9A4946204600F05F
S214403A2071FF814658E5149A002A00F0878103F218
S214403A3033430C9F089DF2E4BAF1000F7FF475AD56
S214403A40B4E700F033FE474606468346BEE50146E9
S214403A502046069300F020FE0122069BE0E5249BCC
S214403A60022B7FF796AD0A9B002BC9D14146052213
S214403A70204600F01BFE01468046484600F0E4FF24
S214403A800028BDDD029A04993123013202920B7060
S214403A904D1CB9E7029A01320292049A3123137000
S214403AA052E601230B9366E6DDF82C900C9C8FE4DF
S214403AB0C8734000A07340000000F03F00001C4068
S214403AC00000E03F0000244000001440504601F053
S214403AD00BFF3A46434601F06DFF0022C14B01F012
S214403AE0B7FD0546A1F1507641460022BE4B38460A
S214403AF001F0ACFD2A46334682468B4602F0EAF990
S214403B008046002840F010812A4606F10043504681
S214403B10594602F0C1F918B1464671E7DDF84890BB
S214403B20DDE910ABFFF78ABB0498FFF7BBBA0C9BE6
S214403B300D9A0C97FB1A1A440D92002769E4DDE9AA
S214403B4010234FF0020ACDE9122357E60021012345
S214403B5061642046259300F079FD259B04902064FF
S214403B600A930F9329E6002AD046CDF818B09A4615
S214403B7011DD49460122204600F014FF41468146A9
S214403B8000F062FF002840F34681BAF1390F00F09A
S214403B90068105F1310AB34687F800A07D1C069ED3
S214403BA0D2E504D11AF0010F01D0BDE5154615F84F
S214403BB0013C302B05F1FF32F8D0C5E504993022A0
S214403BC00A70029A15F8018C01320292FFF7FCBB8C
S214403BD000F0BB80029B5D42844B05F00F0203EB76
S214403BE0C203D3E90023DDE9100101F0E3FE2D1105
S214403BF00746884600F02C817D4E4FF0020AEB07C0
S214403C0009D538464146D6E9002301F0D3FE0AF1ED
S214403C10010A074688466D1006F10806EFD108E609
S214403C207168204600F012FD336902339A0005465B
S214403C3006F10C010C3000F063FC294601222046B8
S214403C4000F0B0FE0690B5E4392BCDF818B0D0465B
S214403C5000F0A58003F1010AB34687F800A07D1C5A
S214403C60069E71E55A46D046B3469A4616464FE5F6
S214403C70129B5E4901EBC3012A46334651E90201D5
S214403C8001F098FECDE916013846414602F042F969
S214403C90054601F029FE0B4602464146384601F0ED
S214403CA0D5FC129B0F4604993035012B0D70064605
S214403CB001F1010526D0129B049ADFF83CB1CDF8FD
S214403CC0489013444FF0000A994652465B463046A9
S214403CD0394601F06FFE0F46064602F01BF9804655
S214403CE001F002FE08F1300802460B4630463946DF
S214403CF001F0ACFC05F8018B4D4506460F46E4D175
S214403D00DDF848903B4B0022DDE9160101F0A0FCAF
S214403D1032463B4602F0C0F8002846D0159B029338
S214403D2015F8018CFFF743BB4FF000084646A9E65E
S214403D30089B0A9A9D1A0023FFF771BB189B0C9F9D
S214403D40089DC3F13603FFF76ABBDDE910784FF0F4
S214403D50020A6EE50A9B002B3FF4B8AE0F9B002B81
S214403D607FF7DEAE0022244B3846414601F022FE65
S214403D70074688460AF1010001F0B6FD3A4643463A
S214403D8001F018FE0022174B01F062FC029A0F9BCE
S214403D901293013A0546A1F1507615926AE539220A
S214403DA0B3463A70069E7D1CC0E4DDE9162300202B
S214403DB0104901F04BFC32463B4602F08BF808B9FE
S214403DC0AEE6154615F8013C302B05F1FF32F8D02B
S214403DD0D7E5DDF84890159B0293FFF7E8BA0C97B5
S214403DE0FFF7A5BB00001C4000001440C87340000D
S214403DF0A07340000000E03F00002440392BCDF87F
S214403E0018B0D046DDF828B09A46C8D0BBF1000FAF
S214403E103FF7BFAEBFE67FF4BEAE1AF0010F3FF4E9
S214403E20BAAEB2E64FF000084646E9E53146002312
S214403E300A22204600F03AFC0F9B002B06460ADD7D
S214403E400A93FFF7AABB249B022B23DC0F9B3BE481
S214403E504FF0020AEDE4249B022B1BDC0F9BEFE79E
S214403E60002565642946204600F0F0FB4FF0FF33FE
S214403E700A930F9301230490259520640B93FFF734
S214403E80DDB90125FFF7A5B93FF469ABC0F13C00A9
S214403E90FFF7F9BB0F9B0A93E5E500BF38B50A4C20
S214403EA00A4D641BA4100AD004F18043013B05EB85
S214403EB08305013C55F804399847002CF9D1BDE8F4
S214403EC0384003F07FBB00BFD4754000D07540003B
S214403ED0044A054B1268506B002808BF1846F0305D
S214403EE0704700BF2000402064084020704700BF55
S214403EF0704700BF2DE9F04F01F10B06162E83B038
S214403F00054640F29E8036F0070600F1BD80B1427D
S214403F1000F2BA8000F08EFBB6F5FC7FC0F09382CC
S214403F20730A00F0B880042B00F27981B30903F1DC
S214403F30390003F1380EC300BF4F3B44A3F10801DC
S214403F405C68A14206D10CE0002A80F2AA80E468B0
S214403F50A14206D0636823F003039A1B0F2AF3DDC1
S214403F6070463C69DFF8E4E2744500F0AB81636874
S214403F7023F003039A1B0F2A00F39081002AC7F808
S214403F8014E0C7F810E080F29D80B3F5007F80F023
S214403F906181DB0803F1010C99107A6857F83C8080
S214403FA0C4F8088001238B4007EBCC011343083943
S214403FB0E1607B6047F83C40C8F80C408210012422
S214403FC094409C4200F28B801C4206D120F00300B5
S214403FD064001C4200F10400FAD007EBC009CC464E
S214403FE08046DCF80C309C4507D16DE1002A80F213
S214403FF07B81DB689C4500F06781596821F00301AE
S2144040008A1B0F2AF2DDD3F80CC0D3F80880009341
S2144040109C19284646F0010642F001055E60C8F845
S2144040200CC0CCF808807C613C61C4F80CE0C4F855
S21440403008E065605A5000F003FB009B03F108045B
S2144040401EE0102920D800F0F5FA1026182302208A
S214404050794F3B44A3F108025C68944200F03D81EE
S2144040606368E168A66823F00303234428465A6839
S214404070F16042F001028E605A6000F0E1FA0834C6
S214404080204603B0BDE8F08F00240C2320462B606A
S21440409003B0BDE8F08F40204FF400734FF03F0E62
S2144040A04AE72344E1685A68A66842F00102F16094
S2144040B028468E605A6000F0C3FA0834204603B0A3
S2144040C0BDE8F08F234428465A6842F001025A6001
S2144040D000F0B6FA0834204603B0BDE8F08FBC685E
S2144040E0636823F00308B04504D3A8EB06030F2B00
S2144040F000F38580DFF85891504BD9F800201B68B4
S2144041000132334404EB080A00F0558103F580532E
S2144041100F3323F47F6B2BF00F0B5946284600F0E5
S2144041208FFD411C024600F0FC80824500F2F7807D
S214404130434B19685944196000F04D81D9F8000086
S21440414001301BBFA2EB0A0A5144C9F8002019608F
S21440415012F0070100F01581C1F10800C1F5805149
S2144041600244083102EB0B09C9F30B09A1EB09091C
S214404170494628460193009200F062FD431C9DE8A4
S2144041800C0000F04381801A484440F00100196852
S214404190BA604944BC425060196017D0B8F10F0F5E
S2144041A040F2FB806068A8F10C0222F0070204EBA4
S2144041B0020E00F001004FF0050C10430F2A60601D
S2144041C0CEF804C0CEF808C000F217811D4BBC687C
S2144041D01A68914288BF19601B4B1A689142626800
S2144041E088BF196022F003029642A2EB060301D86C
S2144041F00F2B04DC284600F023FA002440E7A219DF
S21440420043F0010346F0010666602846BA605360F4
S21440421000F016FA0834204603B0BDE8F08F142BA1
S21440422071D9542B00F2A380330B03F16F0003F1D6
S2144042306E0EC30080E600BF54044020980C402019
S214404240680C4020900C4020940C40205C04402099
S2144042505C0840205A0A042A5BD9142A00F2AE8031
S21440426002F15C01C9005B3207EB010C7958ACF1F6
S214404270080C8C4500F088804A6822F0030293427E
S21440428073D289688C45F7D1DCF80C207B68E260F5
S214404290C4F808C09460CCF80C408FE6A11946F0EC
S2144042A0010C42F00106C4F804C028467961396121
S2144042B0C1F80CE0C1F808E04E60E25000F0C0F9EA
S2144042C00834DDE67B6879E608F1010818F0030F4C
S2144042D00CF1080C7FF485AE2DE0DC68A34208BFE5
S2144042E002303FF43EAEBBE619441C464A68DB68E3
S2144042F054F8086F42F001024A602846F3609E6018
S21440430000F09EF9BCE603F15C0003F15B0EC300CF
S21440431012E69A0902F13901C9003832A4E7BC42D4
S21440432054D0BC68626822F003025DE759F8083949
S214404330994540F0868010F0030F00F1FF30F5D12C
S2144043407B6823EA04037B6064009C423FF6C7AE6A
S214404350002C3FF4C4AE1C4240467FF43EAE6400A0
S2144043601C4200F10400FAD037E68C468CE7B3F5E1
S214404370AA7F15D8F30B03F1780003F1770EC3003C
S214404380DAE54FF48051EDE67B689210012101FAA0
S21440439002F213437B60624679E70123536029E7C4
S2144043A040F25452934222D8B30C03F17D0003F1FD
S2144043B07C0EC300C0E503F1100BAEE6542A29D8A4
S2144043C01A0B02F16F01C9006E324DE7204B196897
S2144043D059441960B2E6CAF30B0000287FF4AEAE2B
S2144043E008EB0B03BA6843F001035360EEE67F2008
S2144043F04FF47E734FF07E0E9EE504F1080128468A
S214404400009300F00BFE009B1968DFE601204FF09A
S2144044100009BCE6B2F5AA7F05D8DA0B02F17801AE
S214404420C900773220E740F254518A4205D89A0CA8
S21440443002F17D01C9007C3216E74FF47E717E2280
S21440444012E77B6880E7F00806F1080300E600BF45
S214404450680C402000000000000000000000000043
S21440446001F0FF01102A2BDB10F0070F08D010F8E0
S214404470013B013A8B422DD010F0070F42B3F6D1E4
S214404480F0B441EA012141EA014122F007047FF0FD
S21440449000070023F0E80256083C85EA010586EA54
S2144044A0010685FA47F5A3FA87F586FA47F6A5FA90
S2144044B087F68EB9EED1F0BC01F0FF0102F007029C
S2144044C032B110F8013B013A83EA010313B1F8D147
S2144044D00020704701387047002D06BF3546033828
S2144044E0073815F0010F07D1013015F4807F02BF61
S2144044F0013015F4C03F0130F0BC0138704700BFB2
S214404500844641EA000313F003036DD1403A41D399
S21440451051F8043B40F8043B51F8043B40F8043B58
S21440452051F8043B40F8043B51F8043B40F8043B48
S21440453051F8043B40F8043B51F8043B40F8043B38
S21440454051F8043B40F8043B51F8043B40F8043B28
S21440455051F8043B40F8043B51F8043B40F8043B18
S21440456051F8043B40F8043B51F8043B40F8043B08
S21440457051F8043B40F8043B51F8043B40F8043BF8
S21440458051F8043B40F8043B51F8043B40F8043BE8
S214404590403ABDD2303211D351F8043B40F8043B88
S2144045A051F8043B40F8043B51F8043B40F8043BC8
S2144045B051F8043B40F8043B103AEDD20C3205D398
S2144045C051F8043B40F8043B043AF9D2043208D090
S2144045D0D2071CBF11F8013B00F8013B01D30B8802
S2144045E003806046704700BF082A13D38B078DD0E0
S2144045F010F003038AD0C3F10403D21ADB071CBFB2
S21440460011F8013B00F8013B80D331F8023B20F81B
S214404610023B7BE7043AD9D3013A11F8013B00F854
S214404620013BF9D20B7803704B7843708B788370DC
S214404630604670470148FFF759BC00BF580D402000
S2144046400148FFF755BC00BF580D4020C36C70B5FD
S21440465005460C464BB153F8240080B1026843F837
S214404660242000230361C36070BD2122042100F092
S21440467055FCE86403460028EDD1002070BD0121BA
S21440468001FA04F6721D2846920000F047FC002806
S214404690F3D044608660E4E731B1C36C4A6853F8AF
S2144046A02200086043F82210704700BFF0B50C693E
S2144046B083B00D46064601F1140E0027DEF80000D2
S2144046C081B202FB0133010C180C02FB01019BB2C4
S2144046D0013703EB0143BC424EF8043B4FEA11431B
S2144046E0ECDC3BB1AA68944207DA05EB840201345D
S2144046F053612C61284603B0F0BD696801930131CF
S2144047003046FFF7A3FF2A69023205F10C0107463F
S21440471092000C30FFF7F4FEF26C6968019B52F889
S2144047202100286042F821503D46DEE7020C120484
S2144047300346B2B90304102013F07F4F04BF1B0298
S214404740083013F0704F04BF1B01043013F0404F85
S21440475004BF9B000230002B02DB5B0003D420200A
S21440476070470020E8E70130704700BF036813F049
S2144047700702014607D0DA0721D4980721D49B08C0
S2144047800B600220704798B298B1104613F0FF0FA6
S21440479004BF1B0A08301A0704BF1B0904309A07D7
S2144047A004BF9B080230DA0707D45B0804D12020F8
S2144047B070471B0C1020E9E701300B607047002063
S2144047C070475B080B600120704700BF10B50C4671
S2144047D00121FFF73BFF01224461026110BD00BF8B
S2144047E02DE9F04F0C691569AC4283B08B461646EE
S2144047F004DA2246B3462C460E461546DBF8083009
S214404800DBF8041004EB05089845C8BF0131FFF7F4
S2144048101DFF00F1140909EB880AD145009005D226
S2144048204B46002143F8041B9A45FBD806F1140C6E
S2144048300CEB85030BF1140B9C450BEB840E4CD212
S214404840CDF804A09A46DCF80050AFB2EFB1002194
S2144048504D465E460C4656F8042B286893B281B205
S21440486007FB0313120C010C234407FB021101EB58
S21440487013419BB243EA0143B64545F8043B4FEA31
S2144048801144E8D82C60DCF800502D0C1DD0D9F827
S214404890003048461C46594600220E88240C05FB2C
S2144048A0064422449BB243EA024340F8043B51F894
S2144048B0043B04681B0CA6B205FB036303EB1243E0
S2144048C08E454FEA1342E8D803600CF1040CE245EB
S2144048D009F10409B7D8DDF804A0B8F1000F0BDDE4
S2144048E05AF8043CAAF1040A1BB105E05AF8043D04
S2144048F013B9B8F10108F9D10098C0F8108003B098
S214404900BDE8F08F12F003032DE9F0411446074648
S2144049102ED10D46A4101CD0BE6C96B3E3074FF0C4
S214404920000806D4641014D03068A8B10646E307E1
S214404930F8D5324629463846FFF752FFB5B16A6881
S214404940FB6C641053F82210296043F82250054649
S214404950EAD12846BDE8F081324631463846FFF770
S2144049603FFF3060C0F800800646E0E70546D9E7DE
S2144049705A1E0B4D002355F82220FFF797FE05469A
S214404980C8E701213846FFF761FE40F27121012257
S2144049900023416102610646B8640360BEE700BF7B
S2144049A0907440002DE9F84391460A698B684FEAB7
S2144049B0691404EB020808F101059D420E460746BD
S2144049C0496804DD5B009D4201F10101FADC38468E
S2144049D0FFF73CFE002C00F1140306DD03EB8402D7
S2144049E0002143F8041B9A42FBD1346906F11401B6
S2144049F019F01F0901EB840E1DD0C9F1200C0022CE
S214404A000C6804FA09F4144343F8044B51F8042B99
S214404A108E4522FA0CF2F3D81A600AB108F1020564
S214404A20FB6C7268013D53F822100561316043F813
S214404A302260BDE8F883043B51F8042B43F8042F6A
S214404A408E45F9D8ECE700BF30B40B6905460069DF
S214404A50C01A0FD19B001435143119442B4401E081
S214404A609D4207D253F8044D51F8042D9442F7D096
S214404A7002D3012030BC70474FF0FF30FAE700BF4A
S214404A802DE9F0410F690E4611697F1A002F9046B6
S214404A9017D1890006F1140502F1140E6B18714403
S214404AA001E09D425CD253F8042D51F8044DA242D9
S214404AB0F7D05ED233462C46464675469846012782
S214404AC005E058DB06F1140508F114040027716868
S214404AD0FFF7BCFDD8F810303669C76004EB830C8E
S214404AE0A64605EB860700F1140400235EF8041B77
S214404AF055F8048B8AB213FA88F3090C9A1AC1EB5C
S214404B00184303EB224392B242EA0342F44544F888
S214404B10042B4FEA2343E9D8AF4217D9A446AE4602
S214404B205EF8042B13FA82F3191401EB12419BB280
S214404B3043EA014277454CF8042B4FEA2143EFD82D
S214404B40ED432F4427F0030704373C44043C22B986
S214404B5054F8043D013E002BFAD00661BDE8F081D2
S214404B600021FFF773FD0122002302614361BDE887
S214404B70F0817446ABE7334606F1140402F114059F
S214404B80164601279846A2E72DE9F04182B001215A
S214404B901C46C3F30A571546089EFFF757FDC4F355
S214404BA0130480460FB144F4801401941DB302A848
S214404BB040F8085DFFF7DAFD002834D19DE80C0088
S214404BC0C8F81420002B0CBF01210221C8F8183069
S214404BD0C8F81010DFB908EB8103A0F2324030600D
S214404BE01869FFF7A3FD099BC0EB411018604046CB
S214404BF002B0BDE8F08101A8FFF7B8FD019BC8F8F8
S214404C00143001212030C8F81010002FE3D0099B43
S214404C10A7F233470744C0F1350037601860404676
S214404C2002B0BDE8F0819DE80A00C0F1200203FA18
S214404C3002F20A43C3400193C8F81420C2E700BFFB
S214404C4038B5074C0023054608462360FCF714FC9D
S214404C50431C00D038BD2368002BFBD02B6038BDEA
S214404C606C0D402000000000000000000000000026
S214404C7000000000000000000000000000000000EF
S214404C8090F800F06DE9024520F007016FF0000C47
S214404C9010F0070491F820F040F049804FF00004EF
S214404CA06FF00700D1E9002391F840F000F10800CA
S214404CB082FA4CF2A4FA8CF283FA4CF3A2FA8CF302
S214404CC04BBBD1E9022382FA4CF200F10800A4FA69
S214404CD08CF283FA4CF3A2FA8CF3E3B9D1E90423BD
S214404CE082FA4CF200F10800A4FA8CF283FA4CF3F4
S214404CF0A2FA8CF37BB9D1E9062301F1200182FAAE
S214404D004CF200F10800A4FA8CF283FA4CF3A2FAB3
S214404D108CF3002BC6D0002A04BF04301A4612BAC1
S214404D20B2FA82F2FDE8024500EBD2007047D1E9C4
S214404D30002304F00305C4F100004FEAC50514F053
S214404D40040F91F840F00CFA05F562EA05021CBF24
S214404D5063EA050362464FF00004A9E72DE9F04FE9
S214404D60936883B09046002B70D082460C461768F6
S214404D708D68086842E0A38913F4906F2ED0656969
S214404D80216905EB4505A0EB010B05EBD5750BF14D
S214404D9001006D103044A8422A4684BF05462A4684
S214404DA05B0538D511465046FFF7A4F800283CD09E
S214404DB05A4621690190FFF7A3FBA289019B22F482
S214404DC0906242F08002A281A5EB0B0203EB0B003F
S214404DD0656123612060A2603546B3465A4649461F
S214404DE000F018FAD8F80830A2682068551B5844D6
S214404DF09E1BA5602060C8F808603EB37E683B46B0
S214404E000837002EFAD0AE42D3F80090AB46B2D266
S214404E103546B346E2E7504600F060FA03460028BF
S214404E20D2D12169504600F0F9F80C23CAF8003078
S214404E30A389002243F040034FF0FF30A381C8F817
S214404E400820C8F8042003B0BDE8F08F0020C8F85A
S214404E50040003B0BDE8F08F2DE9F8432C4D06461C
S214404E60286898460F469146FFF740F8294B1C683D
S214404E70D4F84831002B3ED05A681F2A1CDC02F179
S214404E80010E76B103EB82010124C1F88890D3F875
S214404E90880194402043022EC3F88801C1F8088157
S214404EA023D00232C3F804E0286843F82270FFF7A4
S214404EB01FF80020BDE8F883174B0BB34FF4C870BB
S214404EC0AFF300800346D8B1D4F8482102600021F1
S214404ED041600A46C4F848014FF0010EC0F88811F8
S214404EE0C0F88C11002EDCD0CCE7D3F88C110C43E4
S214404EF0C3F88C41D5E704F5A673C4F84831BBE740
S214404F002868FEF7F5FF4FF0FF30BDE8F88300BF96
S214404F1050044020287340000000000010B502FBFB
S214404F2001F1FEF7E7FF0446D8B150F8042C22F012
S214404F300302043A242A18D8132A14D900231B2A19
S214404F400360436016D9242A8360C36011BF00F112
S214404F5010020361436100F118020023136053609E
S214404F609360204610BD0246F7E70021FCF726FD79
S214404F70204610BD00F10802EFE700BFF8B5244F09
S214404F800C460646FFF756FBBB685D68C4F57E6177
S214404F900F3125F00305294421F47F6121F00F01EC
S214404FA0A1F58054B4F5805F07DB00213046FFF75B
S214404FB047FEBB682B44984204D03046FFF740FB80
S214404FC00020F8BD61423046FFF73AFE01300DD072
S214404FD0104BBA6819682D1B45F001053046091B71
S214404FE055601960FFF72CFB0120F8BD00213046C4
S214404FF0FFF726FEBA68831A0F2BDEDD064C0549FE
S214405000246843F00103001B53600860D5E700BFE7
S21440501054044020680C40205C084020002944D0BE
S2144050202DE9F0410D468046FFF704FB55F8047C19
S214405030694927F00103A5F10804E2188E68506814
S214405040B24220F003005ED0FE0750600BD455F805
S214405050087CE41B01F1080EA56875453B446DD0FD
S214405060E768EF60BD6015186D68ED073ED543F004
S21440507001026260E350B3F5007F17D2DB08581C8C
S2144050809A104D6851F83070A7600123934001EBA9
S214405090C0022B43083AE2604B6041F83040FC6067
S2144050A04046BDE8F041FFF7CBBA70475A0A042A9B
S2144050B052D89A0902F13907FF0002F13805C8199B
S2144050C0CA59083890424FD0516821F003018B42AC
S2144050D032D292689042F7D1C368A060E3609C6089
S2144050E0C4604046BDE8F041FFF7AABA95683B4F1A
S2144050F0BD42034440D0D068E86043F0010285607A
S2144051006260E350B7E7FF07034407D455F8082C1E
S214405110A41A1344A068E268C2609060304A1268DD
S21440512043F00100934260608C60B9D32D4B4046FB
S2144051301968FFF723FFB3E71046CDE71118496813
S214405140C90744D49168D268CA60034443F001005A
S21440515091606060E350A3E7142A16D802F15C071A
S214405160FF0002F15B05AAE7AA1001234D689340B1
S2144051702B434B600346B0E743F001024C610C61A1
S214405180E560A5606260E3508AE7542A06D81A0BA9
S21440519002F16F07FF0002F16E0590E7B2F5AA7FB5
S2144051A006D8DA0B02F17807FF0002F1770586E7AA
S2144051B040F25450824206D89A0C02F17D07FF0016
S2144051C002F17C057BE74FF47E777E2577E743F058
S2144051D001016160136063E7540440205C04402092
S2144051E060084020980C402082B049B15AB16BB15B
S2144051F013780B601278101C18BF012002B070475D
S21440520001A9002AF3D1104602B070476FF00100A2
S214405210F4E700BF8842F0B50DD98B1898420AD201
S2144052208418002A51D0224613F8014D02F8014D49
S2144052309942F9D1F0BD0F2A48D941EA00039B07AD
S21440524046D100F1100401F11003154653F8106CD6
S21440525044F8106C53F80C6C44F80C6C53F8086C1B
S21440526044F8086C103D53F8046C44F8046C0F2D59
S21440527003F1100304F11004E8D8A2F1100323F060
S2144052800F0302F00F0E1033BEF1030F1944034410
S21440529021D91E1F0D467446043C55F8047B46F83B
S2144052A0047F032CF8D8AEF1040424F0030404343D
S2144052B02144234402F0030262B1013B0A4411F840
S2144052C0014B03F8014F8A42F9D1F0BD0346F3E79C
S2144052D00346F2E7F0BD7246EEE700BF002900F055
S2144052E095802DE9F04F0D46164683B0804606F170
S2144052F00B07FFF79FF955F804EC162F2EF0030422
S214405300A5F108093CD810221746BE423DD8944223
S21440531043DAC44B996809EB0400884200F0B48035
S214405320436823F0010101444968C9074CD51EF083
S214405330010F00F09B8031464046FEF7DBFD0646F7
S21440534000283AD055F8043C23F001034B44A0F122
S21440535008029A4200F02181221F242A00F2078187
S214405360132A00F2DB8003462A461168196051680A
S214405370596092689A6029464046FFF74FFE1CE007
S21440538027F00707002F3A46BFDA00260C233046A0
S214405390C8F8003003B0BDE8F08F2E46E31B0F2B55
S2144053A01ED8D9F8043003F0010323434C44C9F80F
S2144053B00430636843F0010363604046FFF740F9FA
S2144053C0304603B0BDE8F08F23F00303E118914266
S2144053D01FDBC36882682E46D3600C469A60DDE7C2
S2144053E0D9F8042009EB070102F001024C4443F0CF
S2144053F001031743C9F804704B60636843F0010328
S214405400083163604046FFF709FED6E71146FEF7CF
S21440541071BD1EF0010F8ED155F8081CA9EB010A8C
S214405420DAF8041021F003010B442344934225DBB1
S214405430C26881685646CA609160DAF80C1056F821
S214405440080F221F242AC160886000F29480132A25
S2144054506FD92968CAF808106968CAF80C101B2A60
S21440546000F2A28008350AF1100263E055F8083CC5
S214405470A9EB030ADAF8041021F0030163189342FB
S214405480FFF659AF5646D8E7416821F0030BA344D0
S21440549007F11000834556DA1EF0010F7FF44BAF3C
S2144054A055F8081CA9EB010ADAF8041021F00301AC
S2144054B08B445845E2DC5646DAF80C1056F8080F8E
S2144054C0221F242AC160886000F28F80132A40F28F
S2144054D08A802968CAF808106968CAF80C101B2A1E
S2144054E000F28A8008350AF110022968116069685E
S2144054F05160A96891600AEB0701ABEB070242F0E6
S214405500010299604A60DAF8043003F001031F4351
S2144055104046CAF80470FFF793F851E72B680360DB
S2144055206B6843601B2A2DD800F1080305F108027A
S2144055301BE732462968116069685160A968916026
S2144055401C46D1462AE709EB0701ABEB070B4BF0AD
S214405550010299604A6055F8043C03F001031F437A
S214405560404645F8047CFFF76BF82E4628E7294668
S214405570FFF750FEFFE6294630461C46D146FFF769
S21440558049FE0BE7AB688360EB68C360242A17D0FC
S21440559000F1100305F11002E7E650F8043C23F052
S2144055A003031C442E46F9E6A968CAF81010E968B9
S2144055B0CAF81410242A0CD010350AF11802B9E79C
S2144055C02B6903616B69436105F1180200F118030A
S2144055D0CBE62A69CAF818206A69CAF81C2018352A
S2144055E00AF12002A6E732467FE729463046019375
S2144055F0FFF710FE019B7EE7A968CAF81010E9681D
S214405600CAF81410242A03D010350AF118026CE7A1
S2144056102A69CAF818206A69CAF81C2018350AF19F
S214405620200262E75404402021B1FF2A04D80A70C1
S21440563001207047084670478A2303604FF0FF30CA
S214405640704700BF81F0004102E000BF83F0004396
S21440565030B54FEA41044FEA430594EA050F08BFC8
S21440566090EA020F1FBF54EA000C55EA020C7FEA8C
S214405670645C7FEA655C00F0E2804FEA5454D4EB09
S2144056805555B8BF6D420CDD2C4480EA020281EAD3
S214405690030382EA000083EA010180EA020281EA0B
S2144056A00303362D88BF30BD11F0004F4FEA01315D
S2144056B04FF4801C4CEA113102D0404261EB41016C
S2144056C013F0004F4FEA03334CEA133302D05242F2
S2144056D063EB430394EA050F00F0A780A4F10104AE
S2144056E0D5F1200E0DDB02FA0EFC22FA05F28018E8
S2144056F041F1000103FA0EF2801843FA05F35941CE
S2144057000EE0A5F120050EF1200E012A03FA0EFC4C
S21440571028BF4CF0020C43FA05F3C01851EBE37176
S21440572001F0004507D54FF0000EDCF1000C7EEB93
S21440573000006EEB0101B1F5801F1BD3B1F5001FD1
S2144057400CD349085FEA30004FEA3C0C04F10104F0
S2144057504FEA445212F5800F80F09A80BCF1004F19
S21440576008BF5FEA500C50F1000041EB045141EA9B
S214405770050130BD5FEA4C0C404141EB010111F49C
S214405780801FA4F10104E9D191F0000F04BF014647
S2144057900020B1FA81F308BF2033A3F10B03B3F125
S2144057A020020CDA0C3208DD02F1140CC2F10C02B5
S2144057B001FA0CF021FA02F10CE002F11402D8BF13
S2144057C0C2F1200C01FA02F120FA0CFCDCBF41EADF
S2144057D00C019040E41AA2BF01EB0451294330BDAE
S2144057E06FEA04041F3C1CDA0C340EDC04F114048B
S2144057F0C4F1200220FA04F001FA02F340EA030062
S21440580021FA04F345EA030130BDC4F10C04C4F1A7
S214405810200220FA02F001FA04F340EA0300294687
S21440582030BD21FA04F0294630BD94F0000F83F4D1
S214405830801306BF81F480110134013D4EE77FEAB4
S214405840645C18BF7FEA655C29D094EA050F08BF00
S21440585090EA020F05D054EA000C04BF19461046E1
S21440586030BD91EA030F1EBF0021002030BD5FEA25
S214405870545C05D14000494128BF41F0004130BD4D
S21440588014F580043CBF01F5801130BD01F00045A1
S21440589045F0FE4141F470014FF0000030BD7FEA14
S2144058A0645C1ABF194610467FEA655C1CBF0B460F
S2144058B0024650EA013406BF52EA033591EA030F26
S2144058C041F4002130BD00BF90F0000F04BF00211E
S2144058D0704730B54FF4806404F132044FF0000551
S2144058E04FF0000150E700BF90F0000F04BF0021CA
S2144058F0704730B54FF4806404F1320410F0004530
S21440590048BF40424FF000013EE700BF42004FEA2A
S214405910E2014FEA31014FEA02701FBF12F07F43A7
S21440592093F07F4F81F06051704792F0000F14BFA4
S21440593093F07F4F704730B54FF4607401F00045E8
S21440594021F0004120E700BF50EA010208BF70473F
S21440595030B54FF000050AE050EA010208BF704734
S21440596030B511F0004502D5404261EB41014FF49D
S214405970806404F132045FEA915C3FF4DCAE4FF0A1
S21440598003025FEADC0C18BF03325FEADC0C18BF88
S214405990033202EBDC02C2F1200300FA03FC20FAD9
S2144059A002F001FA03FE40EA0E0021FA02F1144426
S2144059B0C1E600BF70B54FF0FF0C4CF4E06C1CEA3B
S2144059C011541DBF1CEA135594EA0C0F95EA0C0FB0
S2144059D000F0DEF82C4481EA030621EA4C5123EA23
S2144059E04C5350EA013518BF52EA033541F4801152
S2144059F043F4801338D0A0FB02CE4FF00005E1FB05
S214405A0002E506F00042E0FB03E54FF00006E1FB4E
S214405A1003569CF0000F18BF4EF0010EA4F1FF0491
S214405A20B6F5007F64F5407404D25FEA4E0E6D41D1
S214405A3046EB060642EAC62141EA55514FEAC520E2
S214405A4040EA5E504FEACE2EB4F1FD0C88BFBCF55E
S214405A50E06F1ED8BEF1004F08BF5FEA500E50F10F
S214405A60000041EB045170BD06F0004646EA0101D5
S214405A7040EA020081EA0301B4EB5C04C2BFD4EB07
S214405A800C0541EA045170BD41F480114FF0000E00
S214405A90013C00F3AB8014F1360FDEBF002001F06E
S214405AA0004170BDC4F10004203C35DA0C341BDCE8
S214405AB004F11404C4F1200500FA05F320FA04F0BA
S214405AC001FA05F240EA020001F0004221F00041EE
S214405AD010EBD37021FA04F642EB06015EEA430E61
S214405AE008BF20EAD37070BDC4F10C04C4F1200591
S214405AF000FA04F320FA05F001FA04F240EA020044
S214405B0001F0004110EBD37041F100015EEA430E14
S214405B1008BF20EAD37070BDC4F1200500FA05F234
S214405B204EEA020E20FA04F301FA05F243EA0203B3
S214405B3021FA04F001F0004121FA04F220EA0200C2
S214405B4000EBD3705EEA430E08BF20EAD37070BD08
S214405B5094F0000F0FD101F00046400041EB0101E8
S214405B6011F4801F08BF013CF7D041EA060195F0CA
S214405B70000F18BF704703F00046520043EB030384
S214405B8013F4801F08BF013DF7D043EA0603704771
S214405B9094EA0C0F0CEA135518BF95EA0C0F0CD07C
S214405BA050EA410618BF52EA4306D1D181EA0301C2
S214405BB001F000414FF0000070BD50EA410606BFBC
S214405BC01046194652EA430619D094EA0C0F02D101
S214405BD050EA013613D195EA0C0F05D152EA033646
S214405BE01CBF104619460AD181EA030101F0004164
S214405BF041F0FE4141F470014FF0000070BD41F0AD
S214405C00FE4141F4780170BD70B54FF0FF0C4CF486
S214405C10E06C1CEA11541DBF1CEA135594EA0C0FA5
S214405C2095EA0C0F00F0A7F8A4EB050481EA030EF2
S214405C3052EA03354FEA013100F088804FEA0333D9
S214405C404FF0805545EA131343EA12634FEA0222A7
S214405C5045EA111545EA10654FEA00260EF0004168
S214405C609D4208BF964244F1FD0404F5407402D2BA
S214405C705B084FEA3202B61A65EB03055B084FEA4B
S214405C8032024FF480104FF4002CB6EB020E75EB48
S214405C90030E22BFB61A754640EA0C005B084FEA70
S214405CA03202B6EB020E75EB030E22BFB61A7546ED
S214405CB040EA5C005B084FEA3202B6EB020E75EB38
S214405CC0030E22BFB61A754640EA9C005B084FEAB0
S214405CD03202B6EB020E75EB030E22BFB61A7546BD
S214405CE040EADC0055EA060E18D04FEA051545EAAC
S214405CF016754FEA06164FEAC30343EA52734FEA55
S214405D00C2025FEA1C1CC0D111F4801F0BD141EACD
S214405D1000014FF000004FF0004CB6E711F4801F32
S214405D2004BF01430020B4F1FD0C88BFBCF5E06F12
S214405D303FF6AFAEB5EB030C04BFB6EB020C5FEA22
S214405D40500C50F1000041EB045170BD0EF0004E77
S214405D504EEA113114EB5C04C2BFD4EB0C0541EAA9
S214405D60045170BD41F480114FF0000E013C90E6A6
S214405D7045EA060E8DE60CEA135594EA0C0F08BF6A
S214405D8095EA0C0F3FF43BAF94EA0C0F0AD150EA69
S214405D9001347FF434AF95EA0C0F7FF425AF1046FC
S214405DA019462CE795EA0C0F06D152EA03353FF424
S214405DB0FDAE1046194622E750EA410618BF52EAA1
S214405DC043067FF4C5AE50EA41047FF40DAF52EA75
S214405DD043057FF4EBAE12E74FF0FF3C06E000BF12
S214405DE04FF0010C02E000BF4FF0010C4DF804CD1F
S214405DF04FEA410C7FEA6C5C4FEA430C18BF7FEADF
S214405E006C5C1BD001B050EA410C0CBF52EA430C0C
S214405E1091EA030F02BF90EA020F0020704710F18C
S214405E20000F91EA030F58BF994208BF90422CBF1B
S214405E30D8176FEAE37040F0010070474FEA410C14
S214405E407FEA6C5C02D150EA013C07D14FEA430C32
S214405E507FEA6C5CD6D152EA033CD3D05DF8040BA3
S214405E60704700BF8446104662468C4619466346D5
S214405E7000E000BF01B5FFF7B7FF002848BF10F1AC
S214405E80000F01BD4DF808EDFFF7F4FF0CBF0120F1
S214405E9000205DF808FB00BF4DF808EDFFF7EAFF6D
S214405EA034BF012000205DF808FB00BF4DF808ED28
S214405EB0FFF7E0FF94BF012000205DF808FB00BF1D
S214405EC04DF808EDFFF7CEFF94BF012000205DF8A7
S214405ED008FB00BF4DF808EDFFF7C4FF34BF0120B4
S214405EE000205DF808FB00BF4FEA410C7FEA6C5C7F
S214405EF002D150EA013C0AD14FEA430C7FEA6C5C7F
S214405F0002D152EA033C02D14FF0000070474FF0F6
S214405F10010070474FEA410212F5001215D211D522
S214405F206FF47873B3EB625212D94FEAC12343F051
S214405F30004343EA505311F0004F23FA02F018BFD3
S214405F40404270474FF00000704750EA013005D19C
S214405F5011F0004008BF6FF0004070474FF000005F
S214405F60704700BF53B94AB9002908BF00281CBF74
S214405F704FF0FF314FF0FF3000F07AB9ADF1080C2A
S214405F806DE904CE00F006F8DDF804E0DDE9022312
S214405F9004B070472DE9F0478C460D460446089EEF
S214405FA0002B51D18A4217466DD9B2FA82FEBEF115
S214405FB0000F0BD0CEF1200C01FA0EF520FA0CFCA7
S214405FC002FA0EF74CEA050C00FA0EF44FEA174AAE
S214405FD0250CBCFBFAF81FFA87F90AFB18CC45EAF1
S214405FE00C4508FB09F3AB420AD9ED1908F1FF321C
S214405FF080F02381AB4240F22081A8F102083D4464
S214406000ED1AA4B2B5FBFAF00AFB105544EA054473
S21440601000FB09F9A14509D9E41900F1FF3380F0E6
S2144060200A81A14540F2078102383C44A4EB0904AA
S21440603040EA08400021002E61D024FA0EF40023E6
S21440604034607360BDE8F0878B4207D9002E54D089
S214406050002186E821000846BDE8F087B3FA83F1C0
S214406060002940F08E80AB4202D3824200F2FA8092
S214406070841A65EB03050120AC46002E3FD086E827
S2144060801010BDE8F08712B90127B7FBF2F7B7FA50
S21440609087FEBEF1000F34D1EB1B3A0C1FFA87FC8B
S2144060A00121B3FBF2F8250C02FB183345EA034501
S2144060B00CFB08F3AB4207D9ED1908F1FF3002D2CA
S2144060C0AB4200F2D1808046ED1AA3B2B5FBF2F0A7
S2144060D002FB105543EA05440CFB00FCA44507D9D7
S2144060E0E41900F1FF3302D2A44500F2B880184606
S2144060F0A4EB0C0440EA08409DE731463046BDE834
S214406100F087CEF1200405FA0EF307FA0EF720FAD0
S21440611004F83A0C25FA04F448EA0308B4FBF2F112
S2144061204FEA184502FB11441FFA87FC45EA04452E
S21440613001FB0CF3AB4200FA0EF409D9ED1901F15C
S214406140FF3080F08A80AB4240F2878002393D447F
S214406150EB1A1FFA88F5B3FBF2F002FB103345EA60
S214406160034500FB0CF3AB4207D9ED1900F1FF38AD
S2144061706FD2AB426DD902383D44EB1A40EA01413A
S2144061808FE7C1F1200722FA07F88B4005FA01F4A1
S21440619048EA030320FA07FE4FEA134CFD404EEA56
S2144061A0040EB5FBFCF94FEA1E440CFB19551FFACA
S2144061B083F844EA054509FB08F4AC4202FA01F2CA
S2144061C000FA01FA08D9ED1809F1FF3043D2AC4283
S2144061D041D9A9F102091D442D1B1FFA8EFEB5FBBD
S2144061E0FCF00CFB10554EEA054400FB08F8A045B1
S2144061F007D9E41800F1FF3529D2A04527D902383F
S2144062001C4440EA0940A4EB0804A0FB02894C4524
S214406210C6464D4615D312D056B1BAEB0E0364EBC4
S214406220050404FA07F7CB401F43CC403760746040
S2144062300021BDE8F0871846F8E69046E0E6C245FD
S214406240EAD2B8EB020E69EB03050138E4E72846CC
S214406250D7E7404691E78146BEE7014678E70238F1
S2144062603C4445E7084608E7A8F102083D442BE7CA
S214406270704700BF00000000000000000000000063
S2144062800FC01FF038F070F871F861FC63DC639C57
S214406290679C671C7F1C7E187E383C701CF00FC0C5
S2144062A000000000000000000000000000000000A9
S2144062B00000000000000F807F807F8063800380A6
S2144062C00380038003800380038003800380038071
S2144062D0038003807FFC00000000000000000000F8
S2144062E00000000000000000000000001FE07FF0FB
S2144062F03030003800380038007000F001E003C04D
S21440630007C00F801F003C0078007FF800000000A8
S2144063100000000000000000000000000000000038
S21440632000003FE03DF0007000300030007003E0B9
S2144063300FE00BF00038003800180038003878F0CE
S2144063407FE00000000000000000000000000000A9
S2144063500000000000000000007000F001F003F0B4
S21440636003F007700F701E701C703C7078707FF8DA
S2144063700070007000700070000000000000000018
S21440638000000000000000000000000000001FF0B9
S214406390180038003800380038003FE01DF000781C
S2144063A000380038003800787DF07FF03FC00000AD
S2144063B00000000000000000000000000000000098
S2144063C000000000000003E007C01E003C0038004C
S2144063D07FE07EF078387018701C701C7038383843
S2144063E03CF00FE00000000000000000000000004D
S2144063F00000000000000000000000007FF80038A9
S21440640000380070007000E000E001C001C003C02A
S21440641003800380070007000E0000000000000015
S2144064200000000000000000000000000000000027
S2144064301FE03EF0303870383C783FF01FE00FE009
S2144064403FF07FF87878701C701C70383C781FE0FE
S21440645000000000000000000000000000000000F7
S2144064600000000000000FE03EF0387070387038D2
S2144064707018703878783FF81FF80078007000E0A1
S21440648003C01F803E000000000000000000000027
S21440649000000000000000000000000000000000B7
S2144064A0000000000000078007800780078000008B
S2144064B0000000000780078007800780000000007B
S2144064C00000000000000000000000000000000087
S2144064D0000000000000000000000000038007C02D
S2144064E007C00380000000000000000003C00780D3
S2144064F0078007800700070000000000000000003B
S21440650000000000000000000000000000180078B6
S21440651001F803F00FC03F007C007C003F000FC036
S21440652003F001F8007800180000000000000000AA
S2144065300000000000000000000000000000000016
S2144065400000000000000000000000007FF800008F
S214406550000000007FF8000000000000000000007F
S21440656000000000000000000000000000000000E6
S2144065700000000000000000600078007E001F80E1
S21440658007E003F000F800F803F007E01F807E0005
S21440659078007000000000000000000000000000CE
S2144065A000000000000000001FE01CF018700070A3
S2144065B00070007000E001E003C0038003000000AC
S2144065C0000007800780078007800000000000006A
S2144065D00000000000000000000000000000000076
S2144065E0000000000FE01FF01C38383837F87FF8FE
S2144065F07CD86CD87CD86CD87FF87FF030003800D8
S2144066001EE00FE000000000000000000000000058
S2144066100000000003800780078007C00FC00FC03F
S2144066200EE00CE01CE01CE01FF038703870383884
S214406630703870387018000000000000000000003D
S214406640000000000000000000007FC071E0707095
S21440665070307030707077F07FE073F0707870381C
S214406660701870187038707871F07FC000000000A5
S21440667000000000000000000000000000000000D5
S21440668007F81F383C00380070007000600060005B
S214406690E000600060007000700038003C001F3C66
S2144066A007FC0000000000000000000000000000A2
S2144066B00000000000007F8063E060F0607060389B
S2144066C06018601C601C601C601C601C6018603891
S2144066D06038607063E07FC000000000000000008B
S2144066E00000000000000000000000007FF870007E
S2144066F07000700070007000700070007FF07000D6
S2144067007000700070007000700070007FF800002D
S2144067100000000000000000000000000000000034
S21440672000007FF87000700070007000700070000D
S21440673070007FF070007000700070007000700095
S2144067407000700000000000000000000000000024
S214406750000000000000000007F81E301C00380053
S214406760700070007000600061FC601C701C701C43
S214406770701C381C3C1C1E7C07F00000000000000B
S214406780000000000000000000000000000070183C
S21440679070187018701870187018701870187FF885
S2144067A07018701870187018701870187018701864
S2144067B00000000000000000000000000000000094
S2144067C0000000007FF8038003800380038003807E
S2144067D0038003800380038003800380038003805C
S2144067E0038003807FFC00000000000000000000E3
S2144067F0000000000000000000003FF800180018ED
S2144068000018001800180018001800180018001883
S21440681000180038003800700FF07FC000000000FD
S2144068200000000000000000000000000000000023
S214406830607860F061E063C0638067006F007F004F
S2144068407F807B8071C061E060E06070607060381F
S214406850603C000000000000000000000000000057
S21440686000000000000070007000700070007000B3
S2144068707000700070007000700070007000700053
S2144068807000700070007FF80000000000000000FC
S214406890000000000000000000000000703C783C53
S2144068A0783C787C787C7C7C7C7C7CFC7CFC7EDCCD
S2144068B07EDC77DC77DC779C779C739C739C00004F
S2144068C00000000000000000000000000000000083
S2144068D00000781878187C187C187E187E18771870
S2144068E077187398739871D871D870F870F8707874
S2144068F070787038000000000000000000000000C3
S21440690000000000000000000FC01CE03870303867
S21440691070387018601C601C601C601C601C70180E
S2144069207038303838701CE00FC00000000000009F
S21440693000000000000000000000000000007FE0B3
S21440694071F0707870387018701870187038703829
S214406950707077F07FC0700070007000700070003C
S21440696000000000000000000000000000000000E2
S214406970000000000FC01CE03870303870387018C7
S214406980601C601C601C601C701C701C7038783862
S21440699038781FF01FE007C0038003E001F00000D6
S2144069A0000000000000000000007FC071E0707032
S2144069B07030703870387070707077F07FE071C0EB
S2144069C070E070E0707070707038703800000000D2
S2144069D00000000000000000000000000000000072
S2144069E00FF83C703000700078003C003F001FC03D
S2144069F007F001F800780018001800387DF87FF09E
S214406A003FE0000000000000000000000000000022
S214406A100000000000007FFC0380038003800380AA
S214406A200380038003800380038003800380038009
S214406A300380038003800380000000000000000005
S214406A40000000000000000000000000701C701CE9
S214406A50701C701C701C701C701C701C701C701895
S214406A60701870187038303838701CF00FC000003E
S214406A7000000000000000000000000000000000D1
S214406A800000601C701870383038383038703870F5
S214406A901C701CE01CE00EE00EC00FC007C0078054
S214406AA00780038000000000000000000000000097
S214406AB00000000000000000601C701C7018701879
S214406AC0703873B833B833B83FB83FF83FF03FF04C
S214406AD03FF03EF01EF01CF01CF0000000000000EE
S214406AE000000000000000000000000000007038B9
S214406AF0383838701CF01CE00FC007C00780038091
S214406B0007800FC00FE01CE01C70387038387038B3
S214406B100000000000000000000000000000000030
S214406B200000000070387038383038701C701CE038
S214406B300EE00FC007C007800780038003800380F5
S214406B400380038003800000000000000000000077
S214406B50000000000000000000003FF80038007011
S214406B6000F000E001E001C00380078007000F004E
S214406B700E001C003C00380078007FF80000000043
S214406B80000000000000000000000000000007C0F9
S214406B900700070007000700070007000700070078
S214406BA00700070007000700070007000700070068
S214406BB00700070007C000000000000000000000BB
S214406BC0000000007000380038001C001C000E005A
S214406BD00E00070007000380038001C001C000E0EC
S214406BE000E0007000700038003800000000000030
S214406BF00000000000000000000007C001C001C007
S214406C0001C001C001C001C001C001C001C001C037
S214406C1001C001C001C001C001C001C001C001C027
S214406C2007C0000000000000000000000000000058
S214406C300000078007C00FC01EE0000000000000F4
S214406C4000000000000000000000000000000000FF
S214406C5000000000000000000000000000000000EF
S214406C6000000000000000000000000000000000DF
S214406C7000000000000000000000000000000000CF
S214406C8000000000000000007FF800000000000048
S214406C9000000000000000000000000006000F801A
S214406CA00FC001C00000000000000000000000000F
S214406CB0000000000000000000000000000000008F
S214406CC0000000000000000000000000000000007F
S214406CD000000000000000000000000000003FE050
S214406CE01CF00038003800381FF83E783838303806
S214406CF0307839F81FF8000000000000000000005F
S214406D00000000000000000070007000700070007E
S214406D10700070007FE078F07070703870387018CF
S214406D20701870387038707071E07FC000000000D6
S214406D30000000000000000000000000000000000E
S214406D40000000000000000000000FF01E30380079
S214406D503800700070007000700038003C001E382C
S214406D600FF80000000000000000000000000000D7
S214406D70000000000018001800180018001800183E
S214406D8007F81F783C1838183018701870187018A4
S214406D90301838181E780FF8000000000000000079
S214406DA0000000000000000000000000000000009E
S214406DB00000000000000FE03CF038787038703873
S214406DC07FF870007000700038003E780FF80000C2
S214406DD0000000000000000000000000000000006E
S214406DE003F807F807000E000E000E007FF80E00AE
S214406DF00E000E000E000E000E000E000E000E00DE
S214406E000E007FF8000000000000000000000000B8
S214406E10000000000000000000000000000000002D
S214406E2000000FF81F783C18381870187018701843
S214406E307018701838181C780FF8003800383DF075
S214406E403FE00000000000000000000070007000FE
S214406E50700070007000700077E07E707838703890
S214406E60703870387038703870387038703870389D
S214406E7000000000000000000000000000000000CD
S214406E8000000780078007800000000000007F8029
S214406E900380038003800380038003800380038095
S214406EA0038003807FFC000000000000000000001C
S214406EB000000000000000000038003C00380000E1
S214406EC0000000000FF800180018001800180018FE
S214406ED000180018001800180038003800380070F5
S214406EE00FE07FC0000000000000000000007000BF
S214406EF070007000700070007000707871F073C0A1
S214406F0077807F807F807BC071E070E070F0707823
S214406F107038000000000000000000000000000084
S214406F20000000007F00030003000300030003008E
S214406F3003000300030003000300030003000300F4
S214406F400300030003007FFC000000000000000078
S214406F5000000000000000000000000000000000EC
S214406F600000000070007FF07BF873B873B873B809
S214406F7073B873B873B873B873B873B873B800009F
S214406F8000000000000000000000000000000000BC
S214406F9000000000000000000000000077E07E7067
S214406FA07838703870387038703870387038703854
S214406FB0703870380000000000000000000000003C
S214406FC0000000000000000000000000000000007C
S214406FD000000FE01CF038387038701870187018C1
S214406FE07018703838301CF00FE0000000000000C9
S214406FF0000000000000000000000000000000004C
S21440700000000000000000007FC078F0707070380C
S21440701070387038703870387038707071E07FC073
S214407020700070007000700000000000000000005B
S214407030000000000000000000000000000007F80C
S2144070401F781C18381830187018701870183018B8
S21440705038181E780FF8001800180018001800009E
S21440706000000000000000000000000000000000DB
S214407070000000007FF80F980F000E000E000E0074
S2144070800E000E000E000E000E007FE00000000016
S21440709000000000000000000000000000000000AB
S2144070A0000000000000000000000FF01C30180038
S2144070B03E001F801FE007F001F8007800383C7063
S2144070C03FE000000000000000000000000000005C
S2144070D00000000000000000000007000700070056
S2144070E07FF80700070007000700070007000700B3
S2144070F00300038003E001FC0000000000000000E5
S214407100000000000000000000000000000000003A
S21440711000000000000070387038703870387038E2
S214407120703870387038303838383CF81FF80000FF
S214407130000000000000000000000000000000000A
S21440714000000000000000000000000070383838E2
S214407150387018701C601CE00EE00FC00FC007802F
S21440716007800380000000000000000000000000D0
S21440717000000000000000000000000000000000CA
S214407180000073B873B837B837B837B83FF03FF039
S2144071903EF01EF01EF01CF01CF000000000000048
S2144071A0000000000000000000000000000000009A
S2144071B0000000000000000038783C701CE00FE043
S2144071C007C0078007800FC00FE01CF03870783883
S2144071D0000000000000000000000000000000006A
S2144071E000000000000000000000000000007038B2
S2144071F0383838301C701C700CE00EE00EC007C0EB
S21440720007C00380038003800700070006000E00C7
S2144072100000000000000000000000000000000029
S214407220000000003FF0007000F001E003C007805F
S2144072300F000F001E003C0078007FF800000000A2
S21440724000000000000000000000000003C003C073
S214407250070007000700038003C001C001C003C049
S2144072600F800F8007C001C001C003C00380070025
S2144072700700070003C003C0000000000000000035
S2144072800000038003800380038003800380038024
S2144072900380038003800380038003800380038091
S2144072A00380038003800380038003800000000087
S2144072B000000000000000000F000F8003800180E7
S2144072C00380078007000E000E00078003C003C03F
S2144072D007800E000E0007000780038001800380B1
S2144072E00F800F00000000000000000000000000BB
S2144072F00000000000000000000000000000000049
S2144073000000000000003E183F1873F870F00000C0
S2144073100000000000000000000000000000000028
S21440732025643A256400000028004020494E460067
S214407330696E66004E414E006E616E0030313233EB
S214407340343536373839414243444546000000001C
S2144073503031323334353637383961626364656686
S21440736000000000286E756C6C290000300000009C
S21440737020202020202020202020202020202020C8
S21440738030303030303030303030303030303030B8
S214407390496E66696E697479000000004E614E0061
S2144073A00080E03779C34143176E05B5B5B89346BC
S2144073B0F5F93FE9034F384D321D30F94877825A88
S2144073C03CBF737FDD4F1575000000000000F03FA6
S2144073D0000000000000244000000000000059406B
S2144073E00000000000408F40000000000088C340BE
S2144073F000000000006AF8400000000080842E4133
S21440740000000000D01263410000000084D797417E
S2144074100000000065CDCD41000000205FA0024284
S214407420000000E876483742000000A2941A6D42F9
S214407430000040E59C30A2420000901EC4BCD642EC
S21440744000003426F56B0C430080E03779C3414397
S21440745000A0D8855734764300C84E676DC1AB430D
S214407460003D9160E458E143408CB5781DAF15442B
S21440747050EFE2D6E41A4B4492D54D06CFF0804406
S214407480F64AE1C7022DB544B49DD9794378EA441B
S21440749005000000190000007D00000043000000C9
S2144074A0504F5349580000002E0000000020202076
S2144074B0202020202020282828282820202020205F
S2144074C0202020202020202020202020208810102F
S2144074D0101010101010101010101010100404048B
S2144074E00404040404040410101010101010414149
S2144074F04141414101010101010101010101010137
S214407500010101010101010110101010101042424A
S2144075104242424202020202020202020202020206
S21440752002020202020202021010101020000000A6
S2144075300000000000000000000000000000000006
S21440754000000000000000000000000000000000F6
S21440755000000000000000000000000000000000E6
S21440756000000000000000000000000000000000D6
S21440757000000000000000000000000000000000C6
S21440758000000000000000000000000000000000B6
S21440759000000000000000000000000000000000A6
S2144075A00000000000000000000000000000000096
S2144075B0F8B500BFF8BC08BC9E467047012F400097
S2144075C065014000F8B500BFF8BC08BC9E46704751
S2084075D041014000F0
S20C4075D4C0E9FF7F0100000042
S2144075DCBFF35F8F0138FBD17047000000000000FE
S2144075EC746240000E1B307E0100000000093D0016
S2144075FC280040200000000000000000140340203B
S21440760C7C034020E4034020000000000000000003
S21440761C0000000000000000000000000000000019
S21440762C0000000000000000000000000000000009
S21440763C00000000000000000000000000000000F9
S21440764C00000000000000000000000000000000E9
S21440765C00000000000000000000000000000000D9
S21440766C00000000000000000000000000000000C9
S21440767C00000000000000000000000000000000B9
S21440768C00000000000000000000000000000000A9
S21440769C0000000000000000000000000000000099
S2144076AC01000000000000000E33CDAB34126DE636
S2144076BCECDE05000B00000000000000000000009F
S2144076CC0000000000000000000000000000000069
S2144076DC0000000000000000000000000000000059
S2144076EC0000000000000000000000000000000049
S2144076FC0000000000000000000000000000000039
S214407A2C480D402000000000000000005404402098
S214407A3C540440205C0440205C04402064044020F5
S214407A4C640440206C0440206C04402074044020A5
S214407A5C740440207C0440207C0440208404402055
S214407A6C840440208C0440208C0440209404402005
S214407A7C940440209C0440209C044020A4044020B5
S214407A8CA4044020AC044020AC044020B404402065
S214407A9CB4044020BC044020BC044020C404402015
S214407AACC4044020CC044020CC044020D4044020C5
S214407ABCD4044020DC044020DC044020E404402075
S214407ACCE4044020EC044020EC044020F404402025
S214407ADCF4044020FC044020FC04402004054020D4
S214407AEC040540200C0540200C0540201405402081
S214407AFC140540201C0540201C0540202405402031
S214407B0C240540202C0540202C05402034054020E0
S214407B1C340540203C0540203C0540204405402090
S214407B2C440540204C0540204C0540205405402040
S214407B3C540540205C0540205C05402064054020F0
S214407B4C640540206C0540206C05402074054020A0
S214407B5C740540207C0540207C0540208405402050
S214407B6C840540208C0540208C0540209405402000
S214407B7C940540209C0540209C054020A4054020B0
S214407B8CA4054020AC054020AC054020B405402060
S214407B9CB4054020BC054020BC054020C405402010
S214407BACC4054020CC054020CC054020D4054020C0
S214407BBCD4054020DC054020DC054020E405402070
S214407BCCE4054020EC054020EC054020F405402020
S214407BDCF4054020FC054020FC05402004064020CF
S214407BEC040640200C0640200C064020140640207C
S214407BFC140640201C0640201C064020240640202C
S214407C0C240640202C0640202C06402034064020DB
S214407C1C340640203C0640203C064020440640208B
S214407C2C440640204C0640204C064020540640203B
S214407C3C540640205C0640205C06402064064020EB
S214407C4C640640206C0640206C064020740640209B
S214407C5C740640207C0640207C064020840640204B
S214407C6C840640208C0640208C06402094064020FB
S214407C7C940640209C0640209C064020A4064020AB
S214407C8CA4064020AC064020AC064020B40640205B
S214407C9CB4064020BC064020BC064020C40640200B
S214407CACC4064020CC064020CC064020D4064020BB
S214407CBCD4064020DC064020DC064020E40640206B
S214407CCCE4064020EC064020EC064020F40640201B
S214407CDCF4064020FC064020FC06402004074020CA
S214407CEC040740200C0740200C0740201407402077
S214407CFC140740201C0740201C0740202407402027
S214407D0C240740202C0740202C07402034074020D6
S214407D1C340740203C0740203C0740204407402086
S214407D2C440740204C0740204C0740205407402036
S214407D3C540740205C0740205C07402064074020E6
S214407D4C640740206C0740206C0740207407402096
S214407D5C740740207C0740207C0740208407402046
S214407D6C840740208C0740208C07402094074020F6
S214407D7C940740209C0740209C074020A4074020A6
S214407D8CA4074020AC074020AC074020B407402056
S214407D9CB4074020BC074020BC074020C407402006
S214407DACC4074020CC074020CC074020D4074020B6
S214407DBCD4074020DC074020DC074020E407402066
S214407DCCE4074020EC074020EC074020F407402016
S214407DDCF4074020FC074020FC07402004084020C5
S214407DEC040840200C0840200C0840201408402072
S214407DFC140840201C0840201C0840202408402022
S214407E0C240840202C0840202C08402034084020D1
S214407E1C340840203C0840203C0840204408402081
S214407E2C440840204C0840204C084020FFFFFFFFF1
S214407E3C00000200430000000000000000000000AC
S214407E4C00000000000000000000000000000000E1
S214407E5C000000004300000000000000000000008E
S214407E6C00000000000000000000000000000000C1
S214407E7C000000004300000000000000000000006E
S214407E8C00000000000000000000000000000000A1
S214407E9C000000004300000000000000000000004E
S214407EAC0000000000000000000000000000000081
S214407EBC000000004300000000000000000000002E
S214407ECC0000000000000000000000000000000061
S214407EDC000000004300000000000000000000000E
S214407EEC0000000000000000000000000000000041
S214407EFC00000000430000000000000000000000EE
S214407F0C0000000000000000000000000000000020
S214407F1C0000000029564000E951400000000000D7
S214407F2CAC744000A87440004C7340004C73400046
S214407F3C4C7340004C7340004C7340004C734000F4
S214407F4C4C7340004C7340004C734000FFFFFFFFE7
S214407F5CFFFFFFFFFFFFFFFFFFFF00000100415345
S214407F6C43494900000000000000000000000000EB
S214407F7C000000000000000000000000000041531C
S214407F8C43494900000000000000000000000000CB
S214407F9C0000000000000000000000000000000090
S80440121990
